:020000040800F2
:1000000000500020B9140008DD120008E3120008B7
:10001000E9120008EF120008F512000800000000C5
:10002000000000000000000000000000FB120008BB
:100030000713000800000000131300081F13000836
:100040000115000801150008011500080115000838
:100050000115000801150008011500080115000828
:100060000115000801150008011500080115000818
:100070000115000801150008011500080115000808
:1000800001150008011500080115000801150008F8
:1000900001150008011500080115000801150008E8
:1000A00001150008011500080115000801150008D8
:1000B00001150008011500080115000801150008C8
:1000C00001150008011500080115000801150008B8
:1000D00001150008011500080115000801150008A8
:1000E00001150008011500080115000800000000B6
:1000F0000000000000000000000000000000000000
:0C01000000000000000000005FF808F1A3
:1001100010B5054C237833B9044B13B10448AFF341
:1001200000800123237010BDD401002000000000D6
:100130001879000808B5034B1BB103490348AFF316
:10014000008008BD00000000D801002018790008D8
:10015000034613F8012B002AFBD1181A0138704707
:1001600081F0004102E000BF83F0004330B54FEA68
:1001700041044FEA430594EA050F08BF90EA020FD5
:100180001FBF54EA000C55EA020C7FEA645C7FEA68
:10019000655C00F0E2804FEA5454D4EB5555B8BF8B
:1001A0006D420CDD2C4480EA020281EA030382EAFC
:1001B000000083EA010180EA020281EA0303362D8E
:1001C00088BF30BD11F0004F4FEA01314FF4801C61
:1001D0004CEA113102D0404261EB410113F0004F73
:1001E0004FEA03334CEA133302D0524263EB43032A
:1001F00094EA050F00F0A780A4F10104D5F1200EC8
:100200000DDB02FA0EFC22FA05F2801841F1000122
:1002100003FA0EF2801843FA05F359410EE0A5F1F6
:1002200020050EF1200E012A03FA0EFC28BF4CF027
:10023000020C43FA05F3C01851EBE37101F00045DD
:1002400007D54FF0000EDCF1000C7EEB00006EEBEA
:100250000101B1F5801F1BD3B1F5001F0CD3490874
:100260005FEA30004FEA3C0C04F101044FEA4452CB
:1002700012F5800F80F09A80BCF1004F08BF5FEA52
:10028000500C50F1000041EB045141EA050130BD32
:100290005FEA4C0C404141EB0101013C28BFB1F544
:1002A000801FE9D291F0000F04BF01460020B1FA8F
:1002B00081F308BF2033A3F10B03B3F120020CDA62
:1002C0000C3208DD02F1140CC2F10C0201FA0CF040
:1002D00021FA02F10CE002F11402D8BFC2F1200CA5
:1002E00001FA02F120FA0CFCDCBF41EA0C0190405B
:1002F000E41AA2BF01EB0451294330BD6FEA0404A4
:100300001F3C1CDA0C340EDC04F11404C4F120028E
:1003100020FA04F001FA02F340EA030021FA04F3A0
:1003200045EA030130BDC4F10C04C4F1200220FAF7
:1003300002F001FA04F340EA0300294630BD21FA35
:1003400004F0294630BD94F0000F83F4801306BFFB
:1003500081F480110134013D4EE77FEA645C18BFEF
:100360007FEA655C29D094EA050F08BF90EA020F86
:1003700005D054EA000C04BF1946104630BD91EA7E
:10038000030F1EBF0021002030BD5FEA545C05D181
:100390004000494128BF41F0004130BD14F58004C0
:1003A0003CBF01F5801130BD01F0004545F0FE4134
:1003B00041F470014FF0000030BD7FEA645C1ABF69
:1003C000194610467FEA655C1CBF0B46024650EAA0
:1003D000013406BF52EA033591EA030F41F40021CC
:1003E00030BD00BF90F0000F04BF0021704730B552
:1003F0004FF4806404F132044FF000054FF0000127
:1004000050E700BF90F0000F04BF0021704730B5E7
:100410004FF4806404F1320410F0004548BF4042BC
:100420004FF000013EE700BF42004FEAE2014FEA11
:1004300031014FEA02701FBF12F07F4393F07F4FEC
:1004400081F06051704732F07F4208BF704793F0EF
:100450007F4F04BF41F40021704730B54FF4607402
:1004600001F0004521F000411CE700BF50EA010205
:1004700008BF704730B54FF000050AE050EA0102AE
:1004800008BF704730B511F0004502D5404261EB1E
:1004900041014FF4806404F132045FEA915C3FF45F
:1004A000D8AE4FF003025FEADC0C18BF03325FEAFC
:1004B000DC0C18BF033202EBDC02C2F1200300FAAD
:1004C00003FC20FA02F001FA03FE40EA0E0021FAD2
:1004D00002F11444BDE600BF70B54FF0FF0C4CF4C0
:1004E000E06C1CEA11541DBF1CEA135594EA0C0F72
:1004F00095EA0C0F00F0DEF82C4481EA030621EAAD
:100500004C5123EA4C5350EA013518BF52EA0335E7
:1005100041F4801143F4801338D0A0FB02CE4FF099
:100520000005E1FB02E506F00042E0FB03E54FF0C9
:100530000006E1FB03569CF0000F18BF4EF0010EC1
:10054000A4F1FF04B6F5007F64F5407404D25FEABD
:100550004E0E6D4146EB060642EAC62141EA555170
:100560004FEAC52040EA5E504FEACE2EB4F1FD0CB2
:1005700088BFBCF5E06F1ED8BEF1004F08BF5FEA30
:10058000500E50F1000041EB045170BD06F00046E2
:1005900046EA010140EA020081EA0301B4EB5C048F
:1005A000C2BFD4EB0C0541EA045170BD41F4801187
:1005B0004FF0000E013C00F3AB8014F1360FDEBFAC
:1005C000002001F0004170BDC4F10004203C35DA88
:1005D0000C341BDC04F11404C4F1200500FA05F30B
:1005E00020FA04F001FA05F240EA020001F00042AC
:1005F00021F0004110EBD37021FA04F642EB060122
:100600005EEA430E08BF20EAD37070BDC4F10C044B
:10061000C4F1200500FA04F320FA05F001FA04F20F
:1006200040EA020001F0004110EBD37041F10001FB
:100630005EEA430E08BF20EAD37070BDC4F1200506
:1006400000FA05F24EEA020E20FA04F301FA05F26E
:1006500043EA020321FA04F001F0004121FA04F216
:1006600020EA020000EBD3705EEA430E08BF20EAE6
:10067000D37070BD94F0000F0FD101F00046400020
:1006800041EB010111F4801F08BF013CF7D041EAA2
:10069000060195F0000F18BF704703F000465200A6
:1006A00043EB030313F4801F08BF013DF7D043EA77
:1006B0000603704794EA0C0F0CEA135518BF95EA2D
:1006C0000C0F0CD050EA410618BF52EA4306D1D1B4
:1006D00081EA030101F000414FF0000070BD50EAD3
:1006E000410606BF1046194652EA430619D094EA5D
:1006F0000C0F02D150EA013613D195EA0C0F05D147
:1007000052EA03361CBF104619460AD181EA03019A
:1007100001F0004141F0FE4141F470014FF0000052
:1007200070BD41F0FE4141F4780170BD70B54FF0ED
:10073000FF0C4CF4E06C1CEA11541DBF1CEA13556D
:1007400094EA0C0F95EA0C0F00F0A7F8A4EB05044F
:1007500081EA030E52EA03354FEA013100F0888046
:100760004FEA03334FF0805545EA131343EA12630F
:100770004FEA022245EA111545EA10654FEA0026C4
:100780000EF000419D4208BF964244F1FD0404F57D
:10079000407402D25B084FEA3202B61A65EB0305D9
:1007A0005B084FEA32024FF480104FF4002CB6EB96
:1007B000020E75EB030E22BFB61A754640EA0C0016
:1007C0005B084FEA3202B6EB020E75EB030E22BF56
:1007D000B61A754640EA5C005B084FEA3202B6EB97
:1007E000020E75EB030E22BFB61A754640EA9C0056
:1007F0005B084FEA3202B6EB020E75EB030E22BF26
:10080000B61A754640EADC0055EA060E18D04FEAE3
:10081000051545EA16754FEA06164FEAC30343EA83
:1008200052734FEAC2025FEA1C1CC0D111F4801F50
:100830000BD141EA00014FF000004FF0004CB6E749
:1008400011F4801F04BF01430020B4F1FD0C88BFE8
:10085000BCF5E06F3FF6AFAEB5EB030C04BFB6EBF3
:10086000020C5FEA500C50F1000041EB045170BDE6
:100870000EF0004E4EEA113114EB5C04C2BFD4EB13
:100880000C0541EA045170BD41F480114FF0000E97
:10089000013C90E645EA060E8DE60CEA135594EA13
:1008A0000C0F08BF95EA0C0F3FF43BAF94EA0C0F16
:1008B0000AD150EA01347FF434AF95EA0C0F7FF48B
:1008C00025AF104619462CE795EA0C0F06D152EADF
:1008D00003353FF4FDAE1046194622E750EA4106C3
:1008E00018BF52EA43067FF4C5AE50EA41047FF4D4
:1008F0000DAF52EA43057FF4EBAE12E74FF0FF3C39
:1009000006E000BF4FF0010C02E000BF4FF0010C09
:100910004DF804CD4FEA410C7FEA6C5C4FEA430C82
:1009200018BF7FEA6C5C1BD001B050EA410C0CBFD1
:1009300052EA430C91EA030F02BF90EA020F002033
:10094000704710F1000F91EA030F58BF994208BF9A
:1009500090422CBFD8176FEAE37040F00100704757
:100960004FEA410C7FEA6C5C02D150EA013C07D1AE
:100970004FEA430C7FEA6C5CD6D152EA033CD3D0F9
:100980005DF8040B704700BF8446104662468C46F3
:100990001946634600E000BF01B5FFF7B7FF002826
:1009A00048BF10F1000F01BD4DF808EDFFF7F4FF4F
:1009B0000CBF012000205DF808FB00BF4DF808EDDA
:1009C000FFF7EAFF34BF012000205DF808FB00BFFD
:1009D0004DF808EDFFF7E0FF94BF012000205DF81F
:1009E00008FB00BF4DF808EDFFF7CEFF94BF0120D4
:1009F00000205DF808FB00BF4DF808EDFFF7C4FFCD
:100A000034BF012000205DF808FB00BF4FEA410C15
:100A10007FEA6C5C02D150EA013C0AD14FEA430CF8
:100A20007FEA6C5C02D152EA033C02D14FF0000035
:100A300070474FF0010070474FEA410212F5001273
:100A400015D211D56FF47873B3EB625212D94FEA15
:100A5000C12343F0004343EA505311F0004F23FAFF
:100A600002F018BF404270474FF00000704750EA54
:100A7000013005D111F0004008BF6FF00040704711
:100A80004FF00000704700BF4A0011D212F500126B
:100A900011D20DD56FF47873B3EB62520ED44FEAD6
:100AA000C12343F0004343EA505323FA02F0704756
:100AB0004FF00000704750EA013002D14FF0FF3094
:100AC00070474FF0000070474FEA4102B2F1E04337
:100AD00024BFB3F5001CDCF1FE5C0DD901F0004C25
:100AE0004FEAC0024CEA5070B2F1004F40EB830075
:100AF00008BF20F00100704711F0804F21D113F1A1
:100B00003872BCBF01F00040704741F480114FEAD9
:100B10005252C2F11802C2F1200C10FA0CF320FA62
:100B200002F018BF40F001004FEAC1234FEAD3237F
:100B300003FA0CFC40EA0C0023FA02F34FEA4303E9
:100B4000CCE77FEA625307D150EA01331EBF4FF072
:100B5000FE4040F44000704701F0004040F0FE408D
:100B600040F40000704700BF38B505460C4600222F
:100B7000002328462146FFF721FF28B928462146B1
:100B8000BDE8384000F00AB8284604F1004100F002
:100B900005F8404261EB410138BD00BFD0B50022ED
:100BA0000B4B06460F46FFF797FCFFF76DFF044619
:100BB000FFF718FC0022074BFFF78EFC02460B469E
:100BC00030463946FFF7D0FAFFF75EFF2146D0BD29
:100BD0000000F03D0000F04180B500AF00F092FC55
:100BE00000F038F800F07AF900F018F900F04CF94C
:100BF00000F08CF800F0C8F800F0F4F801224FF48F
:100C00000051124801F07EF900224FF48051104843
:100C100001F078F900224FF400510D4801F072F90B
:100C200000224FF480410A4801F06CF900224FF491
:100C30000041074801F066F94FF40051034801F004
:100C400079F94FF47A7000F0BFFCF5E7001001402D
:100C5000000C014080B594B000AF07F128032822B2
:100C60000021184604F035F907F1140300221A6038
:100C70005A609A60DA601A613B1D00221A605A605D
:100C80009A60DA600623BB6201237B630123BB63A6
:100C90001023FB6302237B640023BB644FF4201307
:100CA000FB6407F12803184601F0AEFA0346002B57
:100CB00001D000F0A5F90F237B610223BB61002363
:100CC000FB614FF480633B6200237B6207F11403F6
:100CD0000121184601F01AFD0346002B01D000F057
:100CE0008FF903237B604FF48073BB604FF4804324
:100CF000FB603B1D184601F097FE0346002B01D018
:100D000000F07EF900BF5037BD4680BD80B584B08D
:100D100000AF3B1D00221A605A609A60184B194AB6
:100D20001A60174B00229A60154B01221A73144B5C
:100D300000221A75124B4FF46022DA61104B002228
:100D40005A600F4B01221A610D4800F061FC034606
:100D5000002B01D000F054F909237B600123BB6014
:100D60000023FB603B1D1946054800F029FD0346A2
:100D7000002B01D000F044F900BF1037BD4680BD04
:100D8000F00100200024014080B500AF124B134A4F
:100D90001A60114B124A5A600F4B00229A600E4B98
:100DA0000022DA600C4B4FF480421A610A4B002299
:100DB0005A61094B00229A61074B0022DA61064B07
:100DC00000221A62044801F0CFF80346002B01D03C
:100DD00000F016F900BF80BD20020020005800403E
:100DE000801A060080B500AF0A4B0B4A1A60094B07
:100DF0004FF0FF325A60074B4FF480729A600548FB
:100E000001F07EFF0346002B01D000F0F9F800BF8F
:100E100080BD00BF740200200028004080B500AFF4
:100E2000174B184A1A60164B4FF482725A60144BD3
:100E300000229A60124B0022DA60114B00221A61E4
:100E40000F4B00225A610E4B4FF400729A610C4B0B
:100E50000822DA610A4B00221A62094B00225A6208
:100E6000074B00229A62064B0A22DA62044802F01B
:100E700050F80346002B01D000F0C2F800BF80BD3F
:100E8000880200200030014080B500AF114B124AAB
:100E90001A60104B4FF4E1325A600E4B00229A60F8
:100EA0000C4B0022DA600B4B00221A61094B0C221A
:100EB0005A61084B00229A61064B0022DA6105480C
:100EC00002F0ABF80346002B01D000F099F800BF08
:100ED00080BD00BFE00200200038014080B588B02E
:100EE00000AF07F1100300221A605A609A60DA60BE
:100EF0003F4B9B693E4A43F0100393613C4B9B6917
:100F000003F01003FB60FB68394B9B69384A43F0E0
:100F100020039361364B9B6903F02003BB60BB68E1
:100F2000334B9B69324A43F004039361304B9B6916
:100F300003F004037B607B682D4B9B692C4A43F0D4
:100F4000080393612A4B9B6903F008033B603B68ED
:100F500001224FF40051274800F0D4FF00221C2149
:100F6000254800F0CFFF00224FF47041234800F0E5
:100F7000C9FF4FF400533B6101237B610023BB6138
:100F80000223FB6107F1100319461A4800F036FEF0
:100F90001C233B6101237B610023BB610323FB61B5
:100FA00007F110031946144800F028FE4FF4E043FF
:100FB0003B6101237B610123BB610123FB6107F1DD
:100FC000100319460D4800F019FE4FF400433B6131
:100FD00001237B610123BB610223FB6107F1100345
:100FE0001946064800F00AFE00BF2037BD4680BD06
:100FF000001002400010014000080140000C0140B8
:1010000080B400AF72B600BFFEE7000080B485B0C8
:1010100000AF154B9B69144A43F001039361124BD7
:101020009B6903F00103BB60BB680F4BDB690E4A91
:1010300043F08053D3610C4BDB6903F080537B603A
:101040007B680A4B5B68FB60FB6823F0E063FB6036
:10105000FB6843F00073FB60044AFB68536000BF09
:101060001437BD4680BC70470010024000000140AC
:1010700080B588B000AF786007F1100300221A60D5
:101080005A609A60DA607B681B68144A934221D1E7
:10109000134B9B69124A43F400739361104B9B6995
:1010A00003F40073FB60FB680D4B9B690C4A43F033
:1010B000080393610A4B9B6903F00803BB60BB689C
:1010C00002233B6103237B6107F1100319460548A6
:1010D00000F094FD00BF2037BD4680BD00240140D4
:1010E00000100240000C014080B588B000AF78606D
:1010F00007F1100300221A605A609A60DA607B6878
:101100001B68164A934224D1154B9B69144A43F03D
:1011100008039361124B9B6903F00803FB60FB68B3
:101120004FF440633B6112237B610323FB6107F1B2
:10113000100319460B4800F061FD094BDB69084AB2
:1011400043F48003D361064BDB6903F48003BB6087
:10115000BB6800BF2037BD4680BD00BF00580040BF
:1011600000100240000C014080B584B000AF7860F0
:101170007B681B680B4A934210D101F039F80A4B87
:10118000DB69094A43F00063D361074BDB6903F075
:101190000063FB60FB68054B01221A6000BF10373B
:1011A000BD4680BD00280040001002403C04424281
:1011B00080B588B000AF786007F1100300221A6094
:1011C0005A609A60DA607B681B681B4A93422FD191
:1011D0001A4B9B69194A43F480539361174B9B69DF
:1011E00003F48053FB60FB68144B9B69134A43F084
:1011F00004039361114B9B6903F00403BB60BB685C
:10120000A0233B6102237B610323FB6107F11003F1
:1012100019460B4800F0F2FC40233B6100237B6140
:101220000023BB6107F110031946054800F0E6FCF6
:1012300000BF2037BD4680BD003001400010024095
:101240000008014080B588B000AF786007F1100356
:1012500000221A605A609A60DA607B681B681C4A38
:10126000934231D11B4B9B691A4A43F480439361EB
:10127000184B9B6903F48043FB60FB68154B9B692B
:10128000144A43F004039361124B9B6903F0040377
:10129000BB60BB684FF400733B6102237B61032397
:1012A000FB6107F1100319460B4800F0A7FC4FF44F
:1012B00080633B6100237B610023BB6107F1100366
:1012C0001946054800F09AFC00BF2037BD4680BD96
:1012D00000380140001002400008014080B400AF17
:1012E000FEE780B400AFFEE780B400AFFEE780B455
:1012F00000AFFEE780B400AFFEE780B400AF00BFF0
:10130000BD4680BC704780B400AF00BFBD4680BC06
:10131000704780B400AF00BFBD4680BC704780B549
:1013200000AF00F035F900BF80BD80B400AF0123ED
:101330001846BD4680BC704780B582B000AF78606B
:10134000396003F03BFE034616221A604FF0FF336C
:1013500018460837BD4680BD80B582B000AF7860C2
:101360004FF0FF317868FFF7E7FFFEE780B586B002
:1013700000AFF860B9607A6000237B610AE0AFF3E8
:1013800000800146BB685A1CBA60CAB21A707B69F9
:1013900001337B617A697B689A42F0DB7B6818468F
:1013A0001837BD4680BD80B586B000AFF860B96023
:1013B0007A6000237B6109E0BB685A1CBA601B7825
:1013C0001846AFF300807B6901337B617A697B68E3
:1013D0009A42F1DB7B6818461837BD4680BD80B461
:1013E00083B000AF78604FF0FF3318460C37BD462E
:1013F00080BC704780B483B000AF786039603B68D0
:101400004FF400525A60002318460C37BD4680BC8A
:10141000704780B483B000AF7860012318460C3762
:10142000BD4680BC704780B485B000AFF860B9603D
:101430007A60002318461437BD4680BC7047000010
:1014400080B586B000AF7860144A154BD31A7B6123
:101450007B693B61134B1B68002B02D1114B124A75
:101460001A60104B1A687B6813443A699A4207D293
:1014700003F0A4FD03460C221A604FF0FF3309E08D
:10148000084B1B68FB60074B1A687B681344054ACE
:101490001360FB6818461837BD4680BD0050002019
:1014A00000040000280300208004002080B400AF66
:1014B00000BFBD4680BC7047FFF7F8FF0B480C49E2
:1014C0000C4A002302E0D458C4500433C4188C42A0
:1014D000F9D3094A094C002301E013600432A24207
:1014E000FBD303F071FDFFF777FB7047000000208E
:1014F000D40100209C7D0008D40100207C04002041
:10150000FEE7000080B500AF084B1B68074A43F0B8
:1015100010031360032000F03DFB0F2000F008F8DB
:10152000FFF774FD0023184680BD00BF0020024075
:1015300080B582B000AF7860124B1A68124B1B78EE
:1015400019464FF47A73B3FBF1F3B2FBF3F3184689
:1015500000F047FB0346002B01D001230EE07B681F
:101560000F2B0AD8002279684FF0FF3000F01DFBE6
:10157000064A7B681360002300E001231846083701
:10158000BD4680BD000000200800002004000020AF
:1015900080B400AF054B1B781A46054B1B681344FB
:1015A000034A136000BFBD4680BC7047080000209E
:1015B0002C03002080B400AF024B1B681846BD46C8
:1015C00080BC70472C03002080B584B000AF7860E9
:1015D000FFF7F0FFB8607B68FB60FB68B3F1FF3F8B
:1015E00005D00A4B1B781A46FB681344FB6000BF0A
:1015F000FFF7E0FF0246BB68D31AFA689A42F7D8B1
:1016000000BF00BF1037BD4680BD00BF08000020EE
:1016100080B586B000AF78600023FB7500233B6186
:101620000023BB600023FB607B68002B01D10123FA
:10163000BEE07B689B68002B7B689B6A002B09D10E
:101640007B680022DA627B68002283F824207868B5
:10165000FFF70EFD786800F0ABF90346FB757B6879
:101660009B6A03F01003002B40F09980FB7D002B58
:1016700040F095807B689B6A23F4885323F0020333
:1016800043F002027B689A627B685A687B68DB6978
:101690001A437B681B7B5B001343BA681343BB6030
:1016A0007B689B68B3F5807F03D07B689B68012BC8
:1016B00002D14FF4807300E000233A6913433B6189
:1016C0007B681B7D012B19D17B681B7B002B09D10B
:1016D0007B689B69013B5A033B69134343F40063F6
:1016E0003B610BE07B689B6A43F020027B689A6257
:1016F0007B68DB6A43F001027B68DA627B681B6807
:101700005B6823F469417B681B683A690A435A6045
:101710007B681B689A68284B13407A681268B9681E
:101720000B4393607B689B68B3F5807F03D07B6835
:101730009B68012B04D17B681B69013B1B05FB6087
:101740007B681B68DB6A23F470017B681B68FA689E
:101750000A43DA627B681B689A68184B1340BA68C0
:101760009A420BD17B680022DA627B689B6A23F085
:10177000030343F001027B689A6218E07B689B6A6E
:1017800023F0120343F010027B689A627B68DB6AE5
:1017900043F001027B68DA620123FB7507E07B6896
:1017A0009B6A43F010027B689A620123FB75FB7D04
:1017B00018461837BD4680BDFDF7E1FFFE0E1FFF3E
:1017C00080B485B000AF786039600023FB730023DC
:1017D000BB607B6893F82430012B01D10223DCE04D
:1017E0007B68012283F824203B685B68062B1CD8A9
:1017F0007B681B68596B3B685A6813469B0013440F
:10180000053B1F2202FA03F3DB4319403B681868CB
:101810003B685A6813469B001344053B00FA03F2E9
:101820007B681B680A435A633CE03B685B680C2B8F
:101830001CD87B681B68196B3B685A6813469B0071
:101840001344233B1F2202FA03F3DB4319403B6896
:1018500018683B685A6813469B001344233B00FA00
:1018600003F27B681B680A431A631BE07B681B68F2
:10187000D96A3B685A6813469B001344413B1F22B8
:1018800002FA03F3DB4319403B6818683B685A6867
:1018900013469B001344413B00FA03F27B681B682C
:1018A0000A43DA623B681B68092B1CD97B681B68FA
:1018B000D9683B681A6813465B0013441E3B072235
:1018C00002FA03F3DB4319403B6898683B681A68E7
:1018D00013465B0013441E3B00FA03F27B681B684F
:1018E0000A43DA6019E07B681B6819693B681A686B
:1018F00013465B001344072202FA03F3DB4319404B
:101900003B6898683B681A6813465B00134400FA0A
:1019100003F27B681B680A431A613B681B68102B43
:1019200003D03B681B68112B32D17B681B681D4AB2
:10193000934225D17B681B689B6803F40003002B4E
:1019400026D17B681B689A687B681B6842F400029A
:101950009A603B681B68102B1AD1134B1B68134A03
:10196000A2FB03239A0C13469B0013445B00BB604D
:1019700002E0BB68013BBB60BB68002BF9D107E00C
:101980007B689B6A43F020027B689A620123FB73A9
:101990007B68002283F82420FB7B18461437BD4661
:1019A00080BC7047002401400000002083DE1B4300
:1019B00080B584B000AF78600023FB607B681B6853
:1019C0009B6803F00103012B2ED17B681B689A688A
:1019D0007B681B6822F001029A60FFF7EBFDF8605C
:1019E0001BE0FFF7E7FD0246FB68D31A022B14D970
:1019F0007B681B689B6803F00103012B0DD17B689A
:101A00009B6A43F010027B689A627B68DB6A43F052
:101A100001027B68DA62012307E07B681B689B6830
:101A200003F00103012BDCD0002318461037BD461C
:101A300080BD000080B485B000AF78607B6803F0A3
:101A40000703FB600C4BDB68BB60BA684FF6FF0313
:101A50001340BB60FB681A02BB68134343F0BF63CB
:101A600043F40033BB60044ABB68D36000BF143743
:101A7000BD4680BC704700BF00ED00E080B400AF01
:101A8000044BDB681B0A03F007031846BD4680BC05
:101A9000704700BF00ED00E080B483B000AF0346A4
:101AA0003960FB7197F90730002B0ADB3B68DAB22B
:101AB0000C4997F907301201D2B20B4483F8002386
:101AC0000AE03B68DAB20849FB7903F00F03043BF4
:101AD0001201D2B20B441A7600BF0C37BD4680BC4F
:101AE000704700BF00E100E000ED00E080B489B085
:101AF00000AFF860B9607A60FB6803F00703FB6130
:101B0000FB69C3F10703042B28BF0423BB61FB69F6
:101B10000433062B02D9FB69033B00E000237B6101
:101B20004FF0FF32BB6902FA03F3DA43BB681A4095
:101B30007B699A404FF0FF317B6901FA03F3D94387
:101B40007B680B40134318462437BD4680BC704762
:101B500080B582B000AF78607B68013BB3F1807FD5
:101B600001D301230FE00A4A7B68013B53600F2138
:101B70004FF0FF30FFF790FF054B00229A60044BB7
:101B800007221A60002318460837BD4680BD00BFF3
:101B900010E000E080B582B000AF78607868FFF7B1
:101BA00049FF00BF0837BD4680BD80B586B000AF95
:101BB0000346B9607A60FB7300237B61FFF75EFF29
:101BC00078617A68B9687869FFF790FF024697F9FB
:101BD0000F3011461846FFF75FFF00BF1837BD46AC
:101BE00080BD80B582B000AF78607868FFF7B0FF45
:101BF000034618460837BD4680BD000080B48BB050
:101C000000AF7860396000237B6200233B6269E1AA
:101C100001227B6A02FA03F3FB613B681B68FA69E5
:101C20001340BB61BA69FB699A4240F058813B6836
:101C30005B689A4A93425ED0984A934275D8984A14
:101C4000934258D0964A93426FD8964A934252D0C4
:101C5000944A934269D8944A93424CD0924A934210
:101C600063D8924A934246D0904A93425DD8122B51
:101C70002AD8122B59D801A252F823F0F71C0008D9
:101C8000D11C0008E31C0008251D00082B1D0008BE
:101C90002B1D00082B1D00082B1D00082B1D000804
:101CA0002B1D00082B1D00082B1D00082B1D0008F4
:101CB0002B1D00082B1D00082B1D00082B1D0008E4
:101CC000D91C0008ED1C0008794A934213D02CE07F
:101CD0003B68DB683B6229E03B68DB6804333B62BE
:101CE00024E03B68DB6808333B621FE03B68DB684D
:101CF0000C333B621AE03B689B68002B02D1042343
:101D00003B6213E03B689B68012B05D108233B62D3
:101D10007B68FA691A6109E008233B627B68FA690B
:101D20005A6103E000233B6200E000BFBB69FF2B68
:101D300001D87B6801E07B6804337B61BB69FF2BC2
:101D400002D87B6A9B0002E07B6A083B9B003B61F8
:101D50007B691A680F213B6901FA03F3DB431A40E0
:101D6000396A3B6901FA03F31A437B691A603B68DD
:101D70005B6803F08053002B00F0B1804D4B9B69F2
:101D80004C4A43F0010393614A4B9B6903F0010302
:101D9000BB60BB68484A7B6A9B08023352F8233019
:101DA000FB607B6A03F003039B000F2202FA03F33C
:101DB000DB43FA681340FB607B68404A934213D0D0
:101DC0007B683F4A93420DD07B683E4A934207D0DE
:101DD0007B683D4A934201D1032306E0042304E0DB
:101DE000022302E0012300E000237A6A02F00302EA
:101DF00092009340FA681343FB602F497B6A9B086B
:101E00000233FA6841F823203B685B6803F48013CF
:101E1000002B06D02D4B9A682C49BB6913438B606D
:101E200006E02A4B9A68BB69DB43284913408B6064
:101E30003B685B6803F40013002B06D0234BDA6881
:101E40002249BB691343CB6006E0204BDA68BB69CB
:101E5000DB431E491340CB603B685B6803F40033EF
:101E6000002B06D0194B5A681849BB6913434B60C5
:101E700006E0164B5A68BB69DB43144913404B60BC
:101E80003B685B6803F48033002B21D00F4B1A684A
:101E90000E49BB6913430B6021E000BF0000321004
:101EA000000031100000221000002110000012106C
:101EB0000000111000100240000001400008014025
:101EC000000C0140001001400014014000040140DA
:101ED0000B4B1A68BB69DB43094913400B607B6AF3
:101EE00001337B623B681A687B6A22FA03F3002B9A
:101EF0007FF48EAE00BF00BF2C37BD4680BC70475C
:101F00000004014080B483B000AF78600B467B8052
:101F100013467B707B78002B03D07A887B681A612C
:101F200003E07B881A047B681A6100BF0C37BD464A
:101F300080BC704780B485B000AF78600B467B8072
:101F40007B68DB68FB607A88FB6813401A04FB68D7
:101F5000D9437B880B401A437B681A6100BF143752
:101F6000BD4680BC7047000080B584B000AF78608B
:101F70007B68002B01D101232BE17B6893F83D3076
:101F8000DBB2002B06D17B68002283F83C20786806
:101F9000FFF7AAF87B68242283F83D207B681B6842
:101FA0001A687B681B6822F001021A607B681B6854
:101FB0001A687B681B6842F400421A607B681B68E1
:101FC0001A687B681B6822F400421A6000F0E6FC85
:101FD000F8607B685B68814A934207D8FB68804A57
:101FE000934294BF01230023DBB206E0FB687D4AE5
:101FF000934294BF01230023DBB2002B01D00123C5
:10200000E7E0FB68784AA2FB03239B0CBB607B687C
:102010001B685B6823F03F017B681B68BA680A4352
:102020005A607B681B681B6A23F03F017B685B6812
:102030006A4A934202D8BB68013309E0BB684FF497
:10204000967202FB03F3694AA2FB03239B09013347
:102050007A6812680B4313627B681B68DB6923F4A0
:102060004F4222F0FF027B685B685C498B4219D8C3
:10207000FB68591E7B685B685B00B1FBF3F3591C7E
:1020800040F6FC730B40002B0AD0FB68591E7B689E
:102090005B685B00B1FBF3F30133C3F30B0351E067
:1020A00004234FE07B689B68002B11D1FB68581E0E
:1020B0007B6859680B465B000B44B0FBF3F30133BC
:1020C000C3F30B03002B0CBF01230023DBB212E090
:1020D000FB68581E7B6859680B469B000B449900AF
:1020E0000B44B0FBF3F30133C3F30B03002B0CBF22
:1020F00001230023DBB2002B01D0012322E07B6807
:102100009B68002B0ED1FB68581E7B6859680B46F4
:102110005B000B44B0FBF3F30133C3F30B0343F455
:1021200000430FE0FB68581E7B6859680B469B0014
:102130000B4499000B44B0FBF3F30133C3F30B03DF
:1021400043F44043796809681343CB617B681B689B
:102150001B6823F0C0017B68DA697B681B6A1A433D
:102160007B681B680A431A607B681B689B6823F4C2
:10217000034323F0FF037A6811697A68D268114338
:102180007A6812680B4393607B681B68DB6823F0F6
:10219000FF017B685A697B689B691A437B681B68EF
:1021A0000A43DA607B681B681A687B681B6842F028
:1021B00001021A607B6800221A647B68202283F87F
:1021C0003D207B6800221A637B68002283F83E2052
:1021D000002318461037BD4680BD00BFA086010011
:1021E0007F841E00FF083D0083DE1B43D34D621039
:1021F00080B400AF034B01221A6000BFBD4680BC13
:10220000704700BF20000E4280B586B000AF7860F6
:102210007B68002B01D1012372E27B681B6803F00D
:102220000103002B00F08780924B5B6803F00C03E6
:10223000042B0CD08F4B5B6803F00C03082B12D1DE
:102240008C4B5B6803F48033B3F5803F0BD1894B33
:102250001B6803F40033002B6CD07B685B68002B99
:1022600068D101234CE27B685B68B3F5803F06D1FF
:10227000804B1B687F4A43F4803313602EE07B68F9
:102280005B68002B0CD17B4B1B687A4A23F48033AC
:102290001360784B1B68774A23F4802313601DE09A
:1022A0007B685B68B3F5A02F0CD1724B1B68714A39
:1022B00043F4802313606F4B1B686E4A43F48033F2
:1022C00013600BE06B4B1B686A4A23F48033136086
:1022D000684B1B68674A23F4802313607B685B6844
:1022E000002B13D0FFF766F9386108E0FFF762F9B9
:1022F00002463B69D31A642B01D9032300E25D4BEC
:102300001B6803F40033002BF0D014E0FFF752F900
:10231000386108E0FFF74EF902463B69D31A642B97
:1023200001D90323ECE1534B1B6803F40033002B6A
:10233000F0D100E000BF7B681B6803F00203002BB4
:1023400063D04C4B5B6803F00C03002B0BD0494B64
:102350005B6803F00C03082B1CD1464B5B6803F44D
:102360008033002B16D1434B1B6803F00203002B74
:1023700005D07B681B69012B01D00123C0E13D4BD7
:102380001B6823F0F8027B685B69DB003949134363
:102390000B603AE07B681B69002B20D0364B012292
:1023A0001A60FFF707F9386108E0FFF703F9024602
:1023B0003B69D31A022B01D90323A1E12D4B1B68E2
:1023C00003F00203002BF0D02A4B1B6823F0F80225
:1023D0007B685B69DB00274913430B6015E0264BE4
:1023E00000221A60FFF7E6F8386108E0FFF7E2F82C
:1023F00002463B69D31A022B01D9032380E11D4B0E
:102400001B6803F00203002BF0D17B681B6803F00C
:102410000803002B3AD07B689B69002B19D0174B1F
:1024200001221A60FFF7C6F8386108E0FFF7C2F82A
:1024300002463B69D31A022B01D9032360E10D4BFD
:102440005B6A03F00203002BF0D0012000F0CEFA0B
:102450001CE00A4B00221A60FFF7ACF838610FE06D
:10246000FFF7A8F802463B69D31A022B08D90323C9
:1024700046E100BF00100240000042428004424298
:10248000924B5B6A03F00203002BE9D17B681B6867
:1024900003F00403002B00F0A6800023FB758B4B98
:1024A000DB6903F08053002B0DD1884BDB69874A31
:1024B00043F08053D361854BDB6903F08053BB60ED
:1024C000BB680123FB75824B1B6803F48073002BF0
:1024D00018D17F4B1B687E4A43F480731360FFF76B
:1024E00069F8386108E0FFF765F802463B69D31ADE
:1024F000642B01D9032303E1754B1B6803F480733C
:10250000002BF0D07B68DB68012B06D16F4B1B6A78
:102510006E4A43F0010313622DE07B68DB68002BF9
:102520000CD16A4B1B6A694A23F001031362674BA3
:102530001B6A664A23F0040313621CE07B68DB68B5
:10254000052B0CD1614B1B6A604A43F004031362F4
:102550005E4B1B6A5D4A43F0010313620BE05B4B69
:102560001B6A5A4A23F001031362584B1B6A574AED
:1025700023F0040313627B68DB68002B15D0FFF7A0
:1025800019F838610AE0FFF715F802463B69D31ADB
:1025900041F28832934201D90323B1E04B4B1B6ACD
:1025A00003F00203002BEED014E0FFF703F83861CC
:1025B0000AE0FEF7FFFF02463B69D31A41F2883278
:1025C000934201D903239BE0404B1B6A03F00203B3
:1025D000002BEED1FB7D012B05D13C4BDB693B4A47
:1025E00023F08053D3617B68DB69002B00F0878088
:1025F000364B5B6803F00C03082B61D07B68DB690A
:10260000022B46D1334B00221A60FEF7D3FF38610C
:1026100008E0FEF7CFFF02463B69D31A022B01D92F
:1026200003236DE0294B1B6803F00073002BF0D1EE
:102630007B681B6AB3F5803F08D1244B5B6823F4A9
:1026400000327B689B68214913434B601F4B5B68DA
:1026500023F474127B68196A7B685B6A0B431B491D
:1026600013434B601B4B01221A60FEF7A3FF386136
:1026700008E0FEF79FFF02463B69D31A022B01D9FF
:1026800003233DE0114B1B6803F00073002BF0D0D7
:1026900035E0104B00221A60FEF78CFF386108E02D
:1026A000FEF788FF02463B69D31A022B01D90323A8
:1026B00026E0064B1B6803F00073002BF0D11EE0F0
:1026C0007B68DB69012B07D1012319E00010024070
:1026D00000700040600042420B4B5B68FB60FB688F
:1026E00003F480327B681B6A9A4206D1FB6803F4CC
:1026F00070127B685B6A9A4201D0012300E00023DC
:1027000018461837BD4680BD0010024080B584B021
:1027100000AF786039607B68002B01D10123D0E0E5
:102720006A4B1B6803F007033A689A4210D9674B5B
:102730001B6823F0070265493B6813430B60634B3A
:102740001B6803F007033A689A4201D00123B8E0FE
:102750007B681B6803F00203002B20D07B681B689A
:1027600003F00403002B05D0594B5B68584A43F42F
:10277000E06353607B681B6803F00803002B05D0FF
:10278000534B5B68524A43F460535360504B5B6851
:1027900023F0F0027B689B684D4913434B607B68D4
:1027A0001B6803F00103002B40D07B685B68012BA2
:1027B00007D1474B1B6803F40033002B15D10123CD
:1027C0007FE07B685B68022B07D1414B1B6803F0FD
:1027D0000073002B09D1012373E03D4B1B6803F00C
:1027E0000203002B01D101236BE0394B5B6823F01E
:1027F00003027B685B68364913434B60FEF7DAFEE1
:10280000F8600AE0FEF7D6FE0246FB68D31A41F2F2
:102810008832934201D9032353E02D4B5B6803F0C8
:102820000C027B685B689B009A42EBD1274B1B68CC
:1028300003F007033A689A4210D2244B1B6823F036
:10284000070222493B6813430B60204B1B6803F0CF
:1028500007033A689A4201D0012332E07B681B6883
:1028600003F00403002B08D0194B5B6823F4E062EB
:102870007B68DB68164913434B607B681B6803F079
:102880000803002B09D0124B5B6823F460527B686D
:102890001B69DB000E4913434B6000F021F8024630
:1028A0000B4B5B681B0903F00F030A49CB5C22FA50
:1028B00003F3094A1360094B1B681846FEF738FEFC
:1028C000002318461037BD4680BD00BF00200240DF
:1028D00000100240307900080000002004000020B1
:1028E00080B487B000AF0023FB600023BB600023EF
:1028F0007B6100237B6000233B611E4B5B68FB60B8
:10290000FB6803F00C03042B02D0082B03D027E054
:10291000194B3B6127E0FB689B0C03F00F03174A40
:10292000D35C7B60FB6803F48033002B10D0114B29
:102930005B685B0C03F00103114AD35CBB607B68EE
:102940000D4A03FB02F2BB68B2FBF3F37B6104E0C8
:102950007B680C4A02FB03F37B617B693B6102E00D
:10296000054B3B6100BF3B6918461C37BD4680BC28
:10297000704700BF0010024000127A00487900083A
:102980005879000800093D0080B400AF024B1B6875
:102990001846BD4680BC70470000002080B500AFDF
:1029A000FFF7F2FF0246054B5B681B0A03F00703C3
:1029B0000349CB5C22FA03F3184680BD00100240A5
:1029C0004079000880B500AFFFF7DEFF0246054BF7
:1029D0005B68DB0A03F007030349CB5C22FA03F3CD
:1029E000184680BD001002404079000880B485B0D0
:1029F00000AF78600A4B1B680A4AA2FB03235B0AFC
:102A00007A6802FB03F3FB6000BFFB685A1EFA60A2
:102A1000002BF9D100BF00BF1437BD4680BC704702
:102A200000000020D34D621080B586B000AF786002
:102A300000233B610023FB607B681B6803F00103FC
:102A4000002B7DD00023FB754F4BDB6903F08053D7
:102A5000002B0DD14C4BDB694B4A43F08053D361C3
:102A6000494BDB6903F08053BB60BB680123FB75F6
:102A7000464B1B6803F48073002B18D1434B1B6833
:102A8000424A43F480731360FEF794FD386108E016
:102A9000FEF790FD02463B69D31A642B01D903234C
:102AA0006DE03A4B1B6803F48073002BF0D0364B7B
:102AB0001B6A03F44073FB60FB68002B2ED07B681D
:102AC0005B6803F44073FA689A4227D02E4B1B6A66
:102AD00023F44073FB602E4B01221A602C4B002222
:102AE0001A60294AFB681362FB6803F00103002B9C
:102AF00014D0FEF75FFD38610AE0FEF75BFD024689
:102B00003B69D31A41F28832934201D9032336E05C
:102B10001D4B1B6A03F00203002BEED01A4B1B6AFD
:102B200023F440727B685B68174913430B62FB7D9B
:102B3000012B05D1144BDB69134A23F08053D36179
:102B40007B681B6803F00203002B08D00E4B5B6808
:102B500023F440427B689B680B4913434B607B68BE
:102B60001B6803F01003002B08D0074B5B6823F4AD
:102B700080027B68DB68044913434B6000231846DE
:102B80001837BD4680BD00BF0010024000700040F5
:102B90004004424280B588B000AF786000237B617A
:102BA0000023FB6100233B610023FB600023BB612A
:102BB0007B68102B0AD07B68102B00F28A807B6820
:102BC000012B45D07B68022B75D082E0464B5B68B9
:102BD000FB60454B1B6803F08073002B7BD0FB68C8
:102BE0009B0C03F00F03414AD35C3B61FB6803F489
:102BF0008033002B15D03C4B5B685B0C03F001036A
:102C00003B4AD35C7B61FB6803F48033002B0DD01F
:102C1000384A7B69B2FBF3F23B6902FB03F3FB61C9
:102C200004E03B69344A02FB03F3FB612E4B5B6813
:102C300003F48003B3F5800F02D1FB69BB614AE066
:102C4000FB695B002D4AA2FB03235B08BB6142E0EA
:102C5000254B1B6AFB60FB6803F44073B3F5807F70
:102C600008D1FB6803F00203002B03D04FF40043AC
:102C7000BB611FE0FB6803F44073B3F5007F09D12B
:102C8000194B5B6A03F00203002B03D049F6404363
:102C9000BB610FE0FB6803F44073B3F5407F1CD1C8
:102CA000114B1B6803F40033002B16D04FF2244362
:102CB000BB6112E011E0FFF785FE02460A4B5B683C
:102CC0009B0B03F0030301335B00B2FBF3F3BB6127
:102CD00004E000BF02E000BF00E000BFBB6918468F
:102CE0002037BD4680BD00BF001002405C7900085F
:102CF0006C79000800127A0000093D00ABAAAAAA6C
:102D000080B584B000AF78600023FB607B68002B47
:102D100001D101237AE07B685B7CDBB2002B05D11B
:102D20007B6800221A747868FEF71EFA7B6802221C
:102D30005A74786800F070F80346002B04D07B6862
:102D400004225A74012361E0786800F092F8034687
:102D5000002B04D07B6804225A74012356E07B6860
:102D60001B685A687B681B6822F007025A607B6800
:102D70009B68002B05D0274B1B6B264A23F00103D1
:102D80001363244BDB6A23F460727B689B682149E0
:102D90001343CB627B685B68B3F1FF3F03D07B6872
:102DA0005B68FB600EE00120FFF7F4FEF860FB6853
:102DB000002B04D17B6804225A74012326E0FB68AF
:102DC000013BFB60FB681A0C7B681B6802F00F027A
:102DD0009A607B681B68FA6892B2DA60786800F0E3
:102DE00070F80346002B04D07B6804225A74012338
:102DF0000CE07B680022DA737B6801225A737B68DF
:102E000001229A737B6801225A74002318461037F6
:102E1000BD4680BD006C004080B584B000AF7860D6
:102E20000023FB607B68002B01D101231DE07B6840
:102E30001B685A687B681B6822F008025A60FEF71C
:102E4000B9FBF86009E0FEF7B5FB0246FB68D31A50
:102E5000B3F57A7F01D9032307E07B681B685B68C1
:102E600003F00803002BEED0002318461037BD46B0
:102E700080BD80B584B000AF78600023FB60FEF7B2
:102E800099FBF86009E0FEF795FB0246FB68D31A50
:102E9000B3F57A7F01D903230FE07B681B685B6879
:102EA00003F02003002BEED07B681B685A687B6818
:102EB0001B6842F010025A60002318461037BD46C6
:102EC00080BD80B584B000AF78600023FB607B6874
:102ED0001B685A687B681B6822F010025A60FEF774
:102EE00069FBF86009E0FEF765FB0246FB68D31A50
:102EF000B3F57A7F01D9032307E07B681B685B6821
:102F000003F02003002BEED0002318461037BD46F7
:102F100080BD80B582B000AF78607B68002B01D1A6
:102F2000012376E07B685B6A002B08D17B685B68D5
:102F3000B3F5827F09D07B680022DA6105E07B6807
:102F400000221A617B6800225A617B6800229A6223
:102F50007B6893F85130DBB2002B06D17B680022EE
:102F600083F850207868FEF723F97B68022283F803
:102F700051207B681B681A687B681B6822F040023E
:102F80001A607B685B6803F482727B689B6803F459
:102F900004431A437B68DB6803F400631A437B68CD
:102FA0001B6903F002031A437B685B6903F00103AA
:102FB0001A437B689B6903F400731A437B68DB69DF
:102FC00003F038031A437B681B6A03F0800342EA6C
:102FD00003017B689B6A03F400527B681B680A4309
:102FE0001A607B689B691A0C7B681B6802F00402FC
:102FF0005A607B681B68DA697B681B6822F4006290
:10300000DA617B6800225A657B68012283F85120CF
:10301000002318460837BD4680BD80B582B000AF9A
:1030200078607B68002B01D1012342E07B6893F834
:103030004130DBB2002B06D17B68002283F84020B0
:103040007868FEF7FFF87B68242283F841207B68CC
:103050001B68DA687B681B6822F40052DA607868C3
:1030600000F02CF87B681B681A697B681B6822F4E7
:1030700090421A617B681B685A697B681B6822F062
:103080002A025A617B681B68DA687B681B6842F415
:103090000052DA607B6800225A647B68202283F841
:1030A00041207B68202283F842207B6800225A63FB
:1030B000002318460837BD4680BD000080B584B0A7
:1030C00000AF78607B681B681B6923F440517B6804
:1030D000DA687B681B680A431A617B689A687B68B8
:1030E0001B691A437B685B691343BB607B681B6881
:1030F000DB6823F4B05323F00C037A681268B968D4
:103100000B43D3607B681B685B6923F440717B6869
:103110009A697B681B680A435A617B681B682C4A62
:10312000934203D1FFF74EFCF86002E0FFF736FC54
:10313000F860FA6813469B0013449A001A447B68AF
:103140005B689B00B2FBF3F3224AA2FB03235B09FB
:103150001901FA6813469B0013449A001A447B68CD
:103160005B689B00B2FBF3F21A4BA3FB02035B0903
:10317000642000FB03F3D31A1B013233154AA2FB70
:1031800003235B0903F0F0031944FA6813469B001C
:1031900013449A001A447B685B689B00B2FBF3F20D
:1031A0000C4BA3FB02035B09642000FB03F3D31A5F
:1031B0001B013233074AA2FB03235B0903F00F0212
:1031C0007B681B680A449A6000BF1037BD4680BD0B
:1031D000003801401F85EB51024B0146186800F092
:1031E00023B800BFD001002070B50E4E0C463168E8
:1031F000054611B901F0C0FE30602146284601F0B5
:10320000BBFE431C0AD0C41C24F00304A04207D018
:10321000211A284601F0B0FE013001D14FF0FF34F1
:10322000204670BD340300202DE9F843CD1C25F065
:10323000030508350C2D38BF0C25002D074601DB92
:10324000A94205D90C2300263B603046BDE8F8832F
:10325000DFF8D08000F068F8D8F800301C465CBB7E
:1032600029463846FFF7C0FF431C044655D1D8F81D
:1032700000402646002E45D1002C48D02368314618
:10328000384604EB030901F077FE81453FD1216800
:1032900038466D1A2946FFF7A7FF013037D023685B
:1032A0002B442360D8F80030002B38D05A68A24253
:1032B0002BD100225A600FE02268521B1FD40B2A28
:1032C00017D96119A342256018BF5960636808BF08
:1032D000C8F8001062514B60384604F10B0600F04C
:1032E00029F826F00706231DF21AAED09B1BA35027
:1032F000ABE7A3426268DDD1C8F80020ECE72346C3
:103300006468ACE734467668B4E71346CCE70C2330
:1033100038463B6000F00EF897E72560DCE75B601D
:10332000FFDE00BF30030020014801F071BE00BF86
:1033300078040020014801F06CBE00BF7804002032
:103340002DE9F041804614460E4621B91146BDE8EC
:10335000F041FFF769BF2AB902F0F2FC2546284682
:10336000BDE8F08103F03CFD8442074602D8B4EB8F
:10337000500F12D821464046FFF756FF0546002859
:10338000EDD0BC422246314628BF3A4601F050FEFD
:103390003146404602F0D4FCE1E73546DFE72DE94F
:1033A000F0410F46904603F0EBFB04460D46B8F1A2
:1033B000000F11D0C7F30A53C3F16B03002B0BDDD1
:1033C00000241B0503F17F5505F5401522462B46C9
:1033D000FDF782F804460D4620462946BDE8F081F7
:1033E0002DE9F04F9FB01792002204461A920D4625
:1033F0004FF000084FF000090A46199211782B2966
:103400004AD038D80D2932D8082932D800293BD0E3
:1034100000220E92199E3278302A40F0B2807278E3
:1034200002F0DF02582A6ED102930E9B20460193D0
:103430001AAB00938C4A1BAB19A902F031FD10F0B6
:103440000F07054605D0062F28D10023013619960F
:103450000E93179B002B40F0A0850E9BCBB14246EC
:1034600009F10043104619461FB0BDE8F08F20292E
:10347000CED10132C1E72D29CAD101210E91511CB3
:1034800019915278002AC5D1179B1995002B40F04D
:10349000828542464B46E5E70021EFE71A9A3AB1AA
:1034A00035211CA803F058FC20461A9903F03CF87B
:1034B000013F1B9A042F06D8DFE807F014031D20F4
:1034C0001400DDE91C89E90548BF49F0004929F0ED
:1034D00000431B0D1B05002BBBD101F06FFD222308
:1034E0000360B6E702F23342DDE91C8323F4801364
:1034F00043EA0259E7E7DFF87491E4E76FF0004927
:103500004FF0FF38DFE7199B5A1C19925B78302B7C
:10351000F9D0002B9DD001234FF0000A0A22D34698
:103520000593199BCDF828A00B9319980678A6F15E
:103530003003D9B2092926D901224D4901F0D1FC25
:10354000002830D00020324603465E460890652AA7
:1035500001D0452A13D11EB9059A024394D0002602
:10356000199D6A1C19926A782B2A74D02D2A78D05A
:103570004FF0000CA2F1300109297FD919950027DD
:103580009EE00023C8E7BBF1080FD8BF0A9900F1FD
:103590000100D6BF02FB013302FB0A3A0A930BF18A
:1035A000010B1990C1E7199B5A1C19925A78BBF16B
:1035B000000F37D05E460890A2F13003092B12D9D4
:1035C0000123C4E7199B01305A1C19925A78302AFA
:1035D000F8D0A2F13103082B00F2E4840890002017
:1035E0000646199B0B93303A00F1010314D0089959
:1035F00000EB060C1944089133460A21634513D1A8
:103600003318082B06F1010606441ADC0A230A992E
:1036100003FB01230A930023199A1846511C1991A0
:103620005278C9E75846D2E7082B03F1010303DCBF
:103630000A9F4F430A97E1E7102BD8BF01FB0AFA14
:10364000DCE7102EDCBF0A2303FB0A2AE3E7002392
:103650000893012380E74FF0000CAA1C1992AA7866
:1036600088E74FF0010CF8E7707900080000F07F60
:103670006E790008199A511C19915278302AF9D0A4
:10368000A2F1310108293FF67AAF303A0992199A2E
:103690000C92199A571C19975278A2F1300EBEF16C
:1036A000090F38D90C997F1A082F44F61F6703DCDD
:1036B00009998F42A8BF0F46BCF1000F00D07F428E
:1036C000002E4FD1059901437FF4C3AE002B7FF448
:1036D000DBAE692A29D026DC492A26D04E2A7FF47F
:1036E000D3AE9A4919A802F01DFE00283FF4CCAED3
:1036F000199B1B78282B2FD195491CAA19A802F0D9
:1037000025FE052828D11D9BDDF8708043F0FF4978
:1037100049F4E0099DE60A21099F01FB0721A1F177
:1037200030020992B5E76E2AD9E78A4919A802F052
:10373000F9FD00283FF4A8AE199B8749013B19A861
:10374000199302F0EFFD10B9199B013319934FF053
:103750000008DFF808927CE6814801F077FC80469B
:10376000894676E6089BBBF1000F08BFB346FB1AFB
:10377000102E0A9835460993A8BF1025FCF732FE93
:10378000092E8046894613DD764B03EBC50353E9CA
:103790001223FCF7A1FE804650468946FCF722FE24
:1037A00002460B4640464946FCF7E0FC8046894607
:1037B0000F2E36DC099B002B3FF44BAE22DD162B7F
:1037C00009DC6849424601EBC3014B46D1E90001DF
:1037D000FCF782FEC3E7099AC6F12503934220DB7A
:1037E000604CC6F10F0604EBC6014246D1E9000168
:1037F0004B46FCF771FE099B9E1B04EBC604D4E903
:103800000023E5E7099B16330BDB089B4046DF1BD3
:10381000544B494603EBC707D7E90023FCF786FF63
:103820009DE7099B751B1D44002D70DD15F00F03EE
:103830000AD04C49424601EBC301D1E900014B4695
:10384000FCF74AFE8046894635F00F054DD0B5F5A8
:103850009A7F22DD0026B3460B96089622234FF06E
:103860000008DFF8F89023600B9B002B3FF4F1ADCC
:1038700020461A9902F058FE2046089902F054FE9C
:103880005946204602F050FE20460B9902F04CFEAD
:103890003146204602F048FEDBE5334B40460593B7
:1038A000002349469A462D11012D21DC0BB180469B
:1038B00089462D49A9F1547901EBCA014246D1E963
:1038C00000014B46FCF708FE244B0A460B402749F3
:1038D00080468B42BED8A1F580118B4286BF4FF047
:1038E000FF38DFF88C9002F15479002305937BE0D8
:1038F000EA0705D5059BD3E90023FCF7EDFD01237D
:10390000059A0AF1010A08326D100592CCE7ECD055
:103910006D4215F00F020AD0124B404603EBC20372
:103920004946D3E90023FCF701FF804689462D1163
:10393000DBD01F2D1EDD0026B3460B9608962223F2
:103940004FF000084FF0000923608DE7CE7A0008A1
:1039500084790008C67A0008057B00080000F07F23
:10396000907D0008707C0008487C00080000A07C66
:10397000FFFFEF7F15F0100318BF6A234046059341
:1039800049460023DFF8C8A2EA0704D5DAE9002394
:10399000FCF7A2FD01236D100AF1080AF4D10BB166
:1039A00080468946059BBBB1C9F30A52C2F16B033D
:1039B000002B494610DD1F2B40F32881342BD8BF44
:1039C0004FF0FF334FF00008CFBF4FF05C79C2F1EA
:1039D0004B02934003EA0109002200234046494676
:1039E000FCF7E2FF0028A6D10A9B5A460093204626
:1039F00033460B9902F000FE0B9000283FF42AAFEB
:103A00000026099A089B002AA3EB0703A8BF0023FE
:103A1000B346129322EAE27316930B9B2046596831
:103A200002F042FD089000283FF418AF0B9B0C30C9
:103A30001A6903F10C010232920001F0F9FA1CAB91
:103A400001931BAB009342464B462046CDF8308095
:103A5000CDF83C9003F0FCF81A9000283FF4FEAE3D
:103A60000121204602F060FE834600283FF4F6AEB6
:103A70001B9F1C9A002FABBF129B169B07EB030AE0
:103A8000DD1B059BA8BF169DA7EB03071744714BD1
:103A900007F1FF37B8BFDDF848A09F42C2F13602F8
:103AA00080F2C780DB1B1F2B4FF00101A2EB03024A
:103AB00000F3B38001FA03F31393002310930AEB8E
:103AC0000207059BBA4515441D445346A8BF3B4613
:103AD000AB42A8BF2B46002BC2BFFF1AED1AAAEBC0
:103AE000030A129B002B17DD59461A46204602F0A6
:103AF000D9FE834600283FF4B1AE01461A9A20460B
:103B000002F028FE0A9000283FF4A8AE20461A9939
:103B100002F00AFD0A9B1A93002F00F38F80099B85
:103B2000002B08DD2046169A089902F0BBFE08908B
:103B300000283FF493AE002D08DD2A462046089960
:103B400002F00AFF089000283FF488AEBAF1000F97
:103B500008DD59465246204602F0FEFE8346002804
:103B60003FF47CAE2046089A1A9902F07DFF064683
:103B700000283FF473AE0025C3685946C5600A9318
:103B800002F056FFA8426BDA0A9B53EA080340F0A2
:103B90008F80C9F31303002B40F08A8029F0004383
:103BA0001B0D1B05B3F1D66F40F28280736913B908
:103BB0003369012B7CDD31460122204602F0CCFE28
:103BC0005946064602F034FF002871DD05994B4640
:103BD000214A002900F08D8002EA0901B1F1D66F77
:103BE00000F38780B1F15C7F7FF7A9AE404649467C
:103BF0001A4B0022FCF770FC174B80460B4089469D
:103C0000002B7FF435AE2223236031E64FF0FF32E4
:103C100002FA03F303EA0808DEE6C7F17F4707F577
:103C20007F0707F57B47E23701FA07F310931391FB
:103C300045E7002310930123139340E73A462046BB
:103C40001A9902F089FE1A9000287FF468AF05E601
:103C50009879000802FCFFFF0000F07F0000503957
:103C6000CA4665D10A9AC9F3130352B39E4A9342D6
:103C70002AD1059B4146FBB19C4B4FF0FF3209EA2C
:103C80000303B3F1D46F1AD81B0DC3F16B0302FA0F
:103C900003F3994218D1964B9A4502D101313FF472
:103CA000DDAD4FF00008914B0AEA030303F58019DC
:103CB000059B002B9AD1DBE54FF0FF33E9E7134674
:103CC000E7E753EA080381D0109BE3B113EA0A0F38
:103CD000EED00A9B40464946059AC3B1FFF75FFB09
:103CE00002460B460C980F99FCF740FA804689462D
:103CF000DEE71340A3F580136FEA13594FF0FF3846
:103D00006FEA0959D4E7139B13EA080FE0E7FFF7BE
:103D100046FB02460B460C980F99FCF725FA002249
:103D2000002380468946FCF73FFE0028C0D006E607
:103D30005946304602F0E2FF02460B46CDE9102319
:103D400000224FF08043FCF743FE00286FD00A9B0F
:103D5000002B7CD1B8F1000F59D1C9F31303002B0C
:103D60007BD1DDE910010022624BFCF727FE002821
:103D70005AD1DDE9100100225F4BFCF7ADFB05468F
:103D80000F4607F1004306950793DDE90623CDE9C9
:103D90001023564B554A0AEA03031393574B0AEA7A
:103DA00002029A4240F0B080AAF154794046494656
:103DB00002F0E6FEDDE90623FCF78EFB42464B46A9
:103DC000FCF7D4F9DFF824A14D4A01EA0A0A92452A
:103DD000804648D90F9A464B9A4203D10C9B013337
:103DE0003FF43CAD4FF0FF38DFF8049120461A99BC
:103DF00002F09AFB2046089902F096FB59462046AD
:103E000002F092FB3146204602F08EFB05E6B8F147
:103E1000010F03D1B9F1000F3FF491AD0022394BEE
:103E20000A9DCDE9062316E00A9D334FA9E7324BE0
:103E30000022DDE91001FCF74FFB0A9B05460F4607
:103E4000002B9ED002460B46CDE906239DE70022BB
:103E5000284BCDE90623274F97E70022294B4546FB
:103E6000CDE90623F7E701F15479059BCA46002BFB
:103E7000BCD129F00043139A1B0D1B059A42B5D102
:103E800028463946FCF770FEFCF7F8FA02460B4666
:103E900028463946FCF768F90B460246C9F3130A6F
:103EA000CDE90C230A9B4AEA080A5AEA030A6CD0B5
:103EB00009A3D3E90023FCF781FD00287FF4D8ACE7
:103EC00007A3D3E90023DDE90C01FCF795FD0028E9
:103ED0008CD0CDE4AFF300809535A094FFFFDF3F99
:103EE00035E5AF350000E03FFFFF0F000000F07F39
:103EF000FFFFEF7F0000F03F0000E03F0000E07FA9
:103F0000FFFF9F7C0000F0BF059B33B3139BB3F111
:103F1000D46F22D828A3D3E9002328463946FCF7DA
:103F200057FDA0B139462846FCF7AEFD012838BF41
:103F30000120FCF757FA0A9B05460F4603BB01F127
:103F4000004314901593DDE91423CDE91023119B50
:103F5000139A03F1D6639B1A11930C980F99DDE91C
:103F6000108902F00DFE02460B4640464946FCF71A
:103F7000B3FA0C9A0F9BFCF7F9F88046894674E770
:103F800002460B46CDE91423DDE70DA3D3E9002358
:103F9000FCF714FD9BE700230E93199B179A1360FF
:103FA000FFF75BBA652A3FF452AB452A3FF44FABAB
:103FB0000123FFF787BB00BF0000C0FFFFFFDF4109
:103FC0009535A094FFFFCF3F014BFFF709BA00BF23
:103FD00018000020002B2DE9F0471F46BBBF03F15E
:103FE00000431F4600232D2388B01446129A109DCB
:103FF0001370149BDDF84CA023F02008B8F1460F95
:1040000005D0B8F1450F00D10135022300E00323AC
:1040100007AA049206AACDE902A2CDE900352246FC
:104020003B4601F0A9F8B8F1470F064602D1119BB3
:10403000DB0722D5B8F1460F06EB050910D133781E
:10404000302B0AD10022002320463946FCF7ACFC75
:1040500018B9C5F10105CAF80050DAF800309944E2
:104060000022002320463946FCF79EFC08B1CDF81B
:104070001C903022079B4B4507D33046079B159A6F
:104080009B1B136008B0BDE8F087591C07911A709C
:10409000F0E70346F7B5002903F8022BB6BF2D223F
:1040A0002B224942092942702ADD0DF107021746E9
:1040B0000A2691FBF6F5944606FB151430340CF8ED
:1040C000014C0C46632C294602F1FF32F1DC303101
:1040D000ACF1020402F8011C2246411CBA420AD388
:1040E0000DF10902A2EB0C02BC4288BF002213446E
:1040F000181A03B0F0BD12F8015B01F8015FEDE79B
:10410000302330318370C170031DF1E72DE9F04F8A
:1041100091B00C46DDF8688016461F46054600F053
:10412000F3FE036818460993FCF712F800230E9378
:10413000D8F800300A90073323F0070303F1080290
:1041400094F81890D4F800B0C8F80020D3E900A87B
:1041500052464346C4E9122328F000430B934FF024
:10416000FF3250469C4B0B99FCF750FC70BB4FF054
:10417000FF325046984B0B99FCF72AFC30BB0022CB
:10418000002350464146FCF719FC10B12D2384F85A
:104190004330924A924BB9F1470F94BF90469846EC
:1041A00003234FF0000A23612BF0040323603346FE
:1041B0002146284600970FAA00F0D6F9013040F0BA
:1041C00090804FF0FF3011B0BDE8F08F524643466B
:1041D00050464146FCF71AFC48B1B8F1000FB8BF91
:1041E0002D23804AB8BF84F843307F4BD3E7636800
:1041F00009F0DF015A1C42D10623636000220692B7
:104200000EAACDE904920DAA4BF4806303920DF13E
:104210003302CDE901322360636852460093284699
:1042200043460B91FFF7D6FE0B99804647290D991F
:1042300008D1C81C02DB6368994240DDA9F102097C
:104240005FFA89F9B9F1650F1FD84A46013904F1BF
:1042500050000D91FFF71DFF0E9A82461318012A98
:10426000236102DC2268D20701D5013323619DF866
:104270003330002B9BD02D2384F8433097E7472918
:10428000BCD1002BBAD10123B7E7B9F1660F18D121
:10429000002963680BDD216113B92268D00702D5BC
:1042A00001330B4423614FF0000AA165DFE713B926
:1042B0002268D20701D50233F4E70123F2E74FF079
:1042C00067090E9B994205DB23682161D807EAD56F
:1042D0004B1CE7E70029CCBF0122C1F102021344C5
:1042E000E0E723685A0507D4236942463146284649
:1042F000B84701302BD164E7B9F1650F40F2DD809A
:10430000D4E9120100220023FCF74EFB002833D031
:10431000012331462846354AB84701303FF451AFB2
:10432000DDE90D239A4202DB2368D8070FD5DDE9CA
:10433000092331462846B84701303FF442AF4FF0D9
:10434000000804F11A090E9B013B434509DC236870
:104350009B0700F10481E0680F9B9842B8BF1846A4
:1043600031E701234A4631462846B84701303FF439
:1043700028AF08F10108E6E70D9B002B38DC01238C
:1043800031462846194AB84701303FF41AAFDDE9F3
:104390000D32134302D12368D907D8D5DDE90923AB
:1043A00031462846B84701303FF40BAF4FF00009C3
:1043B00004F11A0A0D9B5B424B4501DC0E9B94E70E
:1043C0000123524631462846B84701303FF4F9AE42
:1043D00009F10109EEE700BFFFFFEF7FC17A000896
:1043E000C57A0008C97A0008CD7A0008D17A000899
:1043F0000E9AA36D9A42A8BF1A46002A914637DC4E
:104400004FF0000B29EAE97904F11A02D4F858A018
:10441000AAEB09035B4533DCDDE90D239A423BDB64
:104420002368DA0738D4DDE90D32A2EB0309A2EBE9
:104430000A029145A8BF9146B9F1000F34DC4FF054
:10444000000829EAE97904F11A0ADDE90D239B1A2B
:10445000A3EB090343457FF77AAF01235246314668
:104460002846B84701303FF4ACAE08F10108ECE74C
:104470001346314642462846B8470130C0D1A0E62F
:104480000123314628460B92B84701303FF499AEDC
:104490000B9A0BF1010BB9E73146DDE909232846F8
:1044A000B8470130BFD18CE64B463146284608EB71
:1044B0000A02B8470130C2D183E60E9A012A01DC14
:1044C000DB0739D50123424631462846B84701303B
:1044D0003FF477AEDDE9092331462846B84701307D
:1044E0003FF46FAED4E9120100220023DDF83890CA
:1044F000FCF75AFAD8B909F1FF3308F10102314645
:104500002846B84701300ED15BE601234A463146C2
:104510002846B84701303FF454AE08F101080E9B1D
:10452000013B4345F1DC534604F15002DEE64FF017
:10453000000804F11A09F2E701234246DFE70123EC
:104540004A4631462846B84701303FF43AAE08F1B2
:104550000108E3680F995B1A4345F0DCFBE64FF076
:10456000000804F11909F4E72DE9F04716469946C9
:104570008A680B6907469342B8BF1346336091F8C7
:1045800043200C46DDF820800AB1013333602368F4
:10459000990642BF336802333360256815F006057B
:1045A00006D104F1190AE36832689B1AAB422BDC8E
:1045B00094F84320131E226818BF0123920630D4BA
:1045C0004946384604F14302C047013023D02368EE
:1045D000226903F00603042B14BF002533684FF053
:1045E000000608BFE56804F11A0408BFED1A54F884
:1045F000123C08BF25EAE5759342C4BF9B1AED182B
:10460000B5421AD1002008E00123524649463846F7
:10461000C047013003D14FF0FF30BDE8F0870135CE
:10462000C1E73020E11881F843005A1C94F8451086
:104630002244023382F84310C2E70123224649464E
:104640003846C0470130E6D00136D9E72DE9FF47AB
:104650000F7E9146782F80460C469A460C9D01F1BC
:10466000430207D8622F0AD8002F00F0D580582FB8
:1046700000F0C18004F1420584F842703AE0A7F1ED
:104680006303152BF6D801A151F823F0E546000885
:10469000F94600087546000875460008754600088A
:1046A00075460008F946000875460008754600087A
:1046B0007546000875460008FF47000825470008B2
:1046C000B9470008754600087546000821480008EB
:1046D000754600082547000875460008754600081D
:1046E000C14700082B681A1D1B682A6004F14205A7
:1046F00084F842300123A0E020682B68070603F10C
:104700000401296001D51E6803E04606FBD5B3F914
:104710000060002E03DA2D23764284F843300A230A
:10472000594812E02B682068191D2960050601D53B
:104730001E6802E04106FBD51E886F2F0CBF0823C0
:104740000A235148002184F843106568002DA8BF52
:104750002168A560A4BF21F0040121600EB9002DDD
:104760004BD01546B6FBF3F103FB1167C75D05F8A7
:10477000017D3746BB420E46F4D9082B0BD1236886
:10478000DE0708D5236961689942DEBF302305F84A
:10479000013C05F1FF35521B22614B462146404644
:1047A000CDF800A003AAFFF7DFFE01304AD14FF099
:1047B000FF3004B0BDE8F087236843F02003236096
:1047C0007827324884F84570236829681F0651F815
:1047D000046B02D45F0648BFB6B2DF0748BF43F0A0
:1047E0002003296048BF23601EB9236823F02003FB
:1047F00023601023A6E72448E4E71546BDE72B68AD
:104800002668181D6169286035061B6801D5196086
:1048100002E07006FBD51980002315462361BCE732
:104820002B6800211A1D2A601D686268284600F066
:10483000F1FB08B1401B606063682361002384F8CA
:104840004330AAE72A46494640462369D04701300B
:10485000ADD023689B0713D4E068039B9842B8BF90
:104860001846A6E70123324649464046D047013064
:104870009DD00135E36803995B1AAB42F2DCEBE7AC
:10488000002504F11906F5E7D37A0008E47A000858
:104890002DE9F04F87B003938B6817465A1EB2F587
:1048A000AE7F85BF6FF4AE755B190023029388BF9E
:1048B00040F25D138B464FF000058CBF8B60029376
:1048C0000B68804643F4F0634BF81C3B0C465E4695
:1048D000AA46A946CDE904550195A26852B13B68A4
:1048E0001B784E2B64D8402B3CD8A3F12B01C8B2C7
:1048F0000E283AD9B9F1000F03D0236823F480734E
:1049000023600AF1FF3ABAF1010F00F213815E450C
:1049100000F205810125284607B0BDE8F08FA3F11C
:1049200061020D2AE6D801A151F822F06B4A000875
:10493000F5480008F5480008F5480008CB4A00088B
:10494000A34A0008F5480008F5480008794A00081D
:10495000F5480008F5480008F5480008F548000843
:10496000314A0008A3F14102DBE70E29C2D801A0B9
:1049700050F821F0234A0008F5480008234A0008AF
:10498000B74A0008F5480008D14900080D4A000858
:104990000D4A00080D4A00080D4A00080D4A00089B
:1049A0000D4A00080D4A00080D4A00080D4A00088B
:1049B0006E2B09D8602BB2D8542B77D0592B99D1B4
:1049C000072D97D1082529E0742B6FD0792BF6E7B6
:1049D0002168C8051AD5029B21F08001216009F1E8
:1049E00001091BB1013B01320293A260A368013BA4
:1049F000A3602369013323617B68013B002B7B604B
:104A000040F384803B6801333B6066E71AEB050F97
:104A10007FF470AF226822F4C072226006F8013B76
:104A2000E4E7226810067FF565AF22F08002F4E724
:104A3000BAF1000F0ED1B9F1000F0ED1226802F4C5
:104A4000E061B1F5E06F08D122F4F0624FF0010AA5
:104A50002260E3E7BAF1020F55D0012D02D0042DF8
:104A60007FF448AF0135EDB2D8E7BAF1010F7FF41A
:104A700041AF4FF0020AD1E77DB9B9F1000F7FF4E1
:104A80003CAF226802F4E061B1F5E06F7FF439AF2A
:104A900022F4F06201252260C0E7032DE2D0052D4B
:104AA000DEE7022D7FF426AF0325B7E7062D7FF45E
:104AB00021AF0725B2E7226891057FF51BAF22F4ED
:104AC00020722260CDF80490A8E7226802F4A06169
:104AD000B1F5806F06D050057FF50CAFB9F1000F2E
:104AE0003FF40FAF910558BF019922F4F06258BF0F
:104AF000A9EB010142F4C0724FF0000958BFCDE9A3
:104B0000041622608AE74FF0030A87E739464046D9
:104B1000D4F88031984700283FF4DFAEEAE6D4F8B5
:104B20007C313A46404616F8011D98472369013BFF
:104B30002361ECE66B1E062B25D8022D36D85E4588
:104B40007FF6E8AED4F87C313A46404616F8011DAF
:104B500098472369013B2361F1E70298D4F87C313F
:104B600010F8011D3A460290404698472369013BE0
:104B700023610AF1FF3A5FFA8AFABAF1020FECD127
:104B8000033DEDB2761B2368DA052FD55B0510D502
:104B90005E457FF6BFAED4F87C313A46404616F803
:104BA000011D98472369013B2361F1E7AA4602965C
:104BB000DFE716F8011C2369652903F1FF3306F1CD
:104BC000FF3523610CD045290AD0D4F87C313A4610
:104BD00040469847236916F8021C013BB51E236125
:104BE0003A464046D4F87C3198472E46256815F061
:104BF000100555D13570236803F4C063B3F5806F99
:104C00001DD1019B4B45A3EB090225D1002259463A
:104C10004046FFF7D9F9039BD4F800C01B681CF08D
:104C2000020F06460F4603F1040220D003990A60E2
:104C30001B68C3E90067E3680133E3606BE6049B2C
:104C4000002BE3D005990A232A464046013102F0A1
:104C50004DF9049B059EC21A04F26F139E4228BFB1
:104C600004F5B77630460F4900F0D0F8CEE71CF0D7
:104C7000040FDBD1DDF80CC0CCF80020D3F80080A5
:104C800002460B46FBF7C2FE28B1074800F0E4F9E4
:104C9000C8F80000CFE730463946FBF715FFF7E7C5
:104CA000002538E6F57A0008907D0008002310B54D
:104CB0000446C0E90033C0E9043383608181436660
:104CC000C2818361194608225C3000F002F9054B6D
:104CD00024626362044BA362044BE362044B2363CC
:104CE00010BD00BF4D4E00086F4E0008A74E0008D3
:104CF000CB4E0008024A0349034800F069B800BFE0
:104D00000C000020C17200088401002041680C4B97
:104D100010B59942044601D002F0D2FAA168094BBD
:104D2000994202D0204602F0CBFAE168064B994244
:104D300004D02046BDE8104002F0C2BA10BD00BF4A
:104D400038030020A00300200804002010B50B4BFE
:104D50000B4C0C4A20461A6004210022FFF7A6FFE4
:104D600004F1680001220921FFF7A0FF04F1D0003F
:104D70000222BDE810401221FFF798BF7004002006
:104D800038030020F54C0008014800F041B900BF8D
:104D900079040020014800F03CB900BF79040020EC
:104DA00010B50446FFF7F0FF236A1BB1BDE81040C1
:104DB000FFF7F0BF044B2362044B1B68002BF5D1B7
:104DC000FFF7C4FFF2E700BF0D4D0008700400209C
:104DD0002DE9F8430746884614460026D4E9019594
:104DE000B9F1010905D52468002CF7D13046BDE89A
:104DF000F883AB89012B07D9B5F90E30013303D005
:104E000029463846C04706436835E9E70EB46FF0D7
:104E1000004100B59CB01DAB029006900791049133
:104E20000848094953F8042B0591006802A9019329
:104E300002F0C6F80022029B1A701CB05DF804EB69
:104E400003B07047D00100200802FFFF10B50C46E8
:104E5000B1F90E1000F07EF80028ABBF636DA38996
:104E60001B1823F48053ACBF6365A38110BD2DE9EB
:104E7000F0411F468B890546DB050C46164605D5D5
:104E800002230022B1F90E1000F052F8A389324635
:104E900023F48053A38128463B46B4F90E10BDE8A5
:104EA000F04100F079B810B50C46B1F90E1000F0E1
:104EB0003FF8431CA38915BF606523F4805343F476
:104EC0008053A38118BFA38110BDB1F90E1000F06B
:104ED0001FB803460244934200D1704703F8011BF8
:104EE000F9E710B56AB10139841810F8012B11F8EF
:104EF000013F9A4203D1A04201D0002AF5D1D01A35
:104F000010BD1046FCE70000004870470801002073
:104F100038B50023054D044608462B60FCF75FFAC0
:104F2000431C02D12B6803B1236038BD74040020F8
:104F300038B50446084611460022054D2A601A4637
:104F4000FCF771FA431C02D12B6803B1236038BD12
:104F50007404002038B50446084611460022054D69
:104F60002A601A46FCF702FA431C02D12B6803B1EF
:104F7000236038BD7404002038B50023054D044675
:104F800008462B60FCF75CFA431C02D12B6803B186
:104F9000236038BD7404002038B504460846114625
:104FA0000022054D2A601A46FCF7FDF9431C02D188
:104FB0002B6803B1236038BD74040020014B1868CE
:104FC000704700BFD001002070B500260C4D0D4C7D
:104FD000641BA410A64209D102F09EFC00260A4DD3
:104FE0000A4C641BA410A64205D170BD55F8043BC1
:104FF00098470136EEE755F8043B98470136F2E74B
:10500000947D0008947D0008947D0008987D000838
:1050100070477047034610B5C9B202449342184620
:1050200001D1002003E0047801338C42F6D110BD99
:105030000A44914200F1FF3300D1704710B511F8D6
:10504000014B914203F8014FF9D110BD00200149F5
:10505000704700BF0000F87F004870470000C07F25
:105060002DE9F74F03690C690746A3427FDB013C3A
:1050700000F1140501F1140805EB8403019358F8BD
:10508000243055F8242001339A42B2FBF3F64FEA5C
:10509000840B08EB840931D34FF0000E4046AC4638
:1050A000F24650F8042B93B206FB03E34FEA124E8C
:1050B0001A0C9BB206FB0E22AAEB0303DCF800A03D
:1050C0004FEA124E1FFA8AFA5344DCF800A092B25B
:1050D000C2EB1A4202EB23429BB243EA02438145F0
:1050E0004FEA224A4CF8043BDBD255F80B302BB97F
:1050F000019B043B9D421A462DD33C61384601F08A
:1051000097FC002823DB29460020013658F8042BA1
:10511000D1F800C093B2C31A120C1FFA8CF00344EA
:10512000C2EB1C4202EB23429BB243EA0243C1455D
:105130004FEA224041F8043BE8D255F8242005EB21
:10514000840322B9043B9D421A460AD33C6130468F
:1051500003B0BDE8F08F1268043B002ACDD1013CBA
:10516000C8E71268043B002AF0D1013CEBE70020BD
:10517000EEE70000000000002DE9F04F16461F4644
:10518000C46999B00546CDE90467DDF8948074B927
:105190001020FEF721F80246E86120B9EF21AC4B60
:1051A000AC4802F0CFF8C0E901440460C460EB6988
:1051B000196851B15A68012393404A608B602846B0
:1051C00001F0B2F90022EB691A603B1EAFBF002369
:1051D000012223F000430593A8BFC8F80030DDF892
:1051E00014909D4BB8BFC8F8002033EA090319D1C9
:1051F00042F20F73249A1360C9F31303334300F090
:105200008985269B53B9954B23E0954B039308332F
:10521000269A1360039819B0BDE8F08F8F4B039363
:105220000333F5E7DDE90434CDE90C34DDE90C01A5
:1052300000220023FBF7B8FB804660B10123249ACB
:105240001360269B002B00F06285864B269A136024
:10525000013B0393DEE716AB019317AB009328469F
:10526000DDE90C2301F0F4FCC9F30A548246002C5A
:105270007ED0DDE90C010D9BA4F2FF34C3F31303D0
:1052800043F07F5343F44013CDF84C80194600227D
:10529000754BFAF769FF68A3D3E90023FBF71CF904
:1052A00067A3D3E90023FAF761FF064620460F46BD
:1052B000FBF7A8F864A3D3E90023FBF70DF9024636
:1052C0000B4630463946FAF751FF06460F46FBF7C4
:1052D000B3FB00228346002330463946FBF76EFBC2
:1052E00048B15846FBF78EF832463B46FBF75CFB6D
:1052F00008B90BF1FF3BBBF1160F57D8DDE90C01E4
:105300005A4B03EBCB03D3E90023FBF757FB0028F1
:105310004ED000230BF1FF3B0F93169B1B1B5A1E15
:1053200046BFC3F1010900234FF00009099248BFAD
:105330000993BBF1000F3DDB099BCDF838B05B440E
:10534000099300230A93229B092B67D8052BC4BF1E
:10535000043B2293229BC8BF0024A3F10203D8BFC1
:105360000124032B00F28680DFE803F02C39375646
:10537000DDE916431C4404F23243202BC1BFC3F1C4
:10538000400309FA03F904F2124326FA03F3D6BFE5
:10539000C3F1200349EA030006FA03F0FBF722F801
:1053A0000122A1F1F873013C13926FE70123B3E7E7
:1053B0000F90B2E7CBF100030A930023A9EB0B098E
:1053C0000E93C0E700230B93239B002B55DC012396
:1053D0001A460693089323920BE00123F3E7002378
:1053E0000B93239B5B4406930133012B0893B8BFB7
:1053F000012300210422E86902F114069E4240D9EB
:105400004160284601F050F8039000283CD1024644
:1054100040F2AF11164BC3E60123E1E7012400235C
:105420000B9422934FF0FF3300220693089312232C
:10543000D1E700BFAFF3008061436F63A787D23F1E
:10544000B3C8608B288AC63FFB799F501344D33F73
:105450000F7B0008267B00080000F07F0B7B000814
:10546000027B0008D27A00080000F83F707C000838
:105470007E7B000801230B93D4E7239B06930893BC
:10548000B7E701315200B7E7EB69039A1A60089B4E
:105490000E2B00F2A880002C00F0A580BBF1000FBD
:1054A00034DD9A4B0BF00F0203EBC2031BF4807F39
:1054B000D3E90034CDE910344FEA2B1416D0DDE9DE
:1054C0000C01934B0327D3E90823FBF72FF9CDE910
:1054D000040104F00F048E4E54B9DDE91023DDE918
:1054E0000401FBF723F9CDE9040129E00227F2E7E3
:1054F000E10708D5DDE91001D6E90023FAF7ECFF52
:10550000CDE91001013764100836E5E700F0A58009
:10551000DDE90C01CBF100047C4B04F00F0203EB3E
:10552000C203D3E90023FAF7D7FF02270023CDE90E
:105530000401774E2411002C40F08480002BD2D13E
:10554000DDE90434CDE910340F9B002B00F0878097
:10555000DDE9100100226F4BFBF730FA00287ED006
:10556000089B002B7BD0069B002B38DDDDE910016A
:105570000022694BFAF7B0FFCDE90401069C0BF15C
:10558000FF3801373846FAF73DFFDDE90423FAF723
:10559000A3FF0022614BFAF7E9FDA1F15076CDE9B6
:1055A00010011196002C5DD1DDE9040100225C4B55
:1055B000FAF7DAFD02460B46CDE904233346109A8A
:1055C000FBF71AFA002840F09582DDE90401109AF1
:1055D00006F10043FBF7F2F9002840F08982DDE98B
:1055E0000C34CDE90434179B002BC0F25181BBF180
:1055F0000E0F00F34D81454B03EBCB03D3E9003491
:10560000CDE90634239B002B80F2DA80089B002B27
:1056100000F3D68040F06B82DDE906010022404BAA
:10562000FAF75AFFDDE90423FBF7DCF9089C26466C
:10563000002840F041823123039F0BF1010B07F852
:10564000013B3DE2E20705D5D6E90023FAF744FF26
:1056500001230137641008366DE7022770E7D8464A
:10566000089C8FE70399294B214412910B9903EB76
:10567000C403DDE9106753E90223002954D0002058
:105680002849FBF753F83B463246FAF76DFDCDE962
:105690001001039FDDE90401FBF7CEF90446FAF798
:1056A000B1FE02460B46DDE90401FAF75DFD024654
:1056B0000B463034CDE90423DDE9102307F8014B14
:1056C000FBF77CF9002873D1DDE9042300201149A0
:1056D000FAF74AFDDDE91023FBF770F9002840F0E6
:1056E000B680129B9F423FF47AAFDDE910010022A1
:1056F000094BFAF7F1FE0022CDE91001DDE90401C2
:10570000054BFAF7E9FECDE90401C3E7707C000818
:10571000487C00080000F03F0000244000001C40CE
:10572000000014400000E03F30463946FAF7D4FE4E
:10573000129BCDE91001039C1493DDE90401FBF7F2
:105740007BF91590FAF75EFE02460B46DDE904018F
:10575000FAF70AFD159B0646303304F8013B129B0D
:105760000F469C424FF0000224D1DDE91001AF4BFF
:10577000FAF7FCFC02460B4630463946FBF73CF98B
:10578000002863D1DDE910230020A849FAF7ECFCDA
:1057900002460B4630463946FBF710F900283FF425
:1057A0001EAF149F7B1E149317F8013C302BF8D0CA
:1057B000C3463BE09E4BFAF78FFECDE90401BCE700
:1057C000039FDDE90489DDE9062340464946FAF7EF
:1057D000ADFFFBF731F90446FAF714FEDDE90623C5
:1057E000FAF77AFE02460B4640464946FAF7BCFCF9
:1057F00004F1300607F8016B039EDDF820C0BE1BE4
:10580000B44502460B4636D1FAF7B0FCDDE9062373
:1058100080468946FBF7F0F858BBDDE90623404691
:105820004946FBF7C1F808B1E30722D451462846A0
:1058300000F07AFE0023249A3B700BF10103136001
:10584000269B002B3FF4E6AC1F60E3E427463B4673
:105850001F4613F8012D392A07D1039A9A42F7D12E
:105860003022039908F101080A701A7801321A707F
:105870009EE7D846EBE700226D4BFAF72DFE00229B
:10588000002380468946FBF78FF800289BD0CDE7A0
:105890000B9A002A00F0C480229A012A00F3A88003
:1058A000139A002A00F0A08003F233434F460A9C6B
:1058B000099A01211A4428469944099200F034FFBC
:1058C00006465FB1099B002B08DDBB42A8BF3B46E3
:1058D000099AA9EB0309FF1AD31A09930A9BF3B19A
:1058E0000B9B002B00F0A080002C10DD31462246DF
:1058F000284600F0D7FF524601460646284600F0EB
:1059000029FF80465146284600F00EFEC2460A9BFB
:105910001A1B04D05146284600F0C4FF82460121DC
:10592000284600F001FF0E9B0446002B40F38280C6
:105930001A460146284600F0B5FF229B0446012B7B
:105940007BDD4FF00008236904EB8303186900F046
:105950009DFEC0F12000099B184410F01F0000F0CC
:105960009280C0F12003042B40F38580099BC0F195
:105970001C000344814407440993B9F1000F05DD7D
:1059800051464A46284600F0E7FF8246099B002B15
:1059900005DD21461A46284600F0DEFF04460F9B2F
:1059A000002B72D02146504601F042F800286CDAF4
:1059B000002351460A22284600F0D8FD0B9B824660
:1059C0000BF1FF3B002B00F0AC81002331460A2293
:1059D000284600F0CBFD069B0646002B00F3938083
:1059E000229B022B59DC8EE0169BC3F136035DE748
:1059F000089B5C1E0A9BA342BFBF0A9B0E9AE31A38
:105A0000D218A8BF1C1B089BBEBF0A940E9200248C
:105A1000002BB5BFA9EB03074F460023089B47E7C0
:105A20004F460A9C0B9E4CE70A9A73E70000E03F42
:105A300000002440229B012B18DC049BB3B9059B7A
:105A4000C3F3130393B9059B23F000431B0D1B0500
:105A50007BB14FF00108099B09F10109013309935A
:105A60000E9B002B7FF46FAF012074E74FF000080E
:105A7000F6E79846F4E780D0099A1C331A44994413
:105A80001F44099279E70346F6E7089B002B34DCB4
:105A9000229B022B31DD089B0693069B63B92146AE
:105AA0000522284600F062FD01460446504600F0FB
:105AB000BFFF00283FF7BFAD239B039F6FEA030B97
:105AC0004FF000082146284600F02EFD002E3FF43E
:105AD000ADAEB8F1000F05D0B04503D04146284621
