:020000040800F2
:1000000000500020715F0008955D00089B5D0008AE
:10001000A15D0008A75D0008AD5D000800000000BC
:10002000000000000000000000000000B35D0008B8
:10003000BF5D000800000000CB5D0008D75D000830
:10004000B95F0008B95F0008B95F0008B95F000830
:10005000B95F0008B95F0008B95F0008B95F000820
:10006000B95F0008B95F0008B95F0008B95F000810
:10007000B95F0008B95F0008B95F0008B95F000800
:10008000B95F0008B95F0008B95F0008B95F0008F0
:10009000B95F0008B95F0008B95F0008B95F0008E0
:1000A000B95F0008B95F0008B95F0008B95F0008D0
:1000B000B95F0008B95F0008B95F0008B95F0008C0
:1000C000B95F0008B95F0008B95F0008B95F0008B0
:1000D000B95F0008B95F0008B95F0008B95F0008A0
:1000E000B95F0008B95F0008B95F000800000000B0
:1000F0000000000000000000000000000000000000
:0C01000000000000000000005FF808F1A3
:1001100010B5054C237833B9044B13B10448AFF341
:1001200000800123237010BD280200200000000081
:100130009CEA000808B5034B1BB103490348AFF321
:10014000008008BD000000002C0200209CEA00088E
:10015000034613F8012B002AFBD1181A0138704707
:1001600081F0004102E000BF83F0004330B54FEA68
:1001700041044FEA430594EA050F08BF90EA020FD5
:100180001FBF54EA000C55EA020C7FEA645C7FEA68
:10019000655C00F0E2804FEA5454D4EB5555B8BF8B
:1001A0006D420CDD2C4480EA020281EA030382EAFC
:1001B000000083EA010180EA020281EA0303362D8E
:1001C00088BF30BD11F0004F4FEA01314FF4801C61
:1001D0004CEA113102D0404261EB410113F0004F73
:1001E0004FEA03334CEA133302D0524263EB43032A
:1001F00094EA050F00F0A780A4F10104D5F1200EC8
:100200000DDB02FA0EFC22FA05F2801841F1000122
:1002100003FA0EF2801843FA05F359410EE0A5F1F6
:1002200020050EF1200E012A03FA0EFC28BF4CF027
:10023000020C43FA05F3C01851EBE37101F00045DD
:1002400007D54FF0000EDCF1000C7EEB00006EEBEA
:100250000101B1F5801F1BD3B1F5001F0CD3490874
:100260005FEA30004FEA3C0C04F101044FEA4452CB
:1002700012F5800F80F09A80BCF1004F08BF5FEA52
:10028000500C50F1000041EB045141EA050130BD32
:100290005FEA4C0C404141EB0101013C28BFB1F544
:1002A000801FE9D291F0000F04BF01460020B1FA8F
:1002B00081F308BF2033A3F10B03B3F120020CDA62
:1002C0000C3208DD02F1140CC2F10C0201FA0CF040
:1002D00021FA02F10CE002F11402D8BFC2F1200CA5
:1002E00001FA02F120FA0CFCDCBF41EA0C0190405B
:1002F000E41AA2BF01EB0451294330BD6FEA0404A4
:100300001F3C1CDA0C340EDC04F11404C4F120028E
:1003100020FA04F001FA02F340EA030021FA04F3A0
:1003200045EA030130BDC4F10C04C4F1200220FAF7
:1003300002F001FA04F340EA0300294630BD21FA35
:1003400004F0294630BD94F0000F83F4801306BFFB
:1003500081F480110134013D4EE77FEA645C18BFEF
:100360007FEA655C29D094EA050F08BF90EA020F86
:1003700005D054EA000C04BF1946104630BD91EA7E
:10038000030F1EBF0021002030BD5FEA545C05D181
:100390004000494128BF41F0004130BD14F58004C0
:1003A0003CBF01F5801130BD01F0004545F0FE4134
:1003B00041F470014FF0000030BD7FEA645C1ABF69
:1003C000194610467FEA655C1CBF0B46024650EAA0
:1003D000013406BF52EA033591EA030F41F40021CC
:1003E00030BD00BF90F0000F04BF0021704730B552
:1003F0004FF4806404F132044FF000054FF0000127
:1004000050E700BF90F0000F04BF0021704730B5E7
:100410004FF4806404F1320410F0004548BF4042BC
:100420004FF000013EE700BF42004FEAE2014FEA11
:1004300031014FEA02701FBF12F07F4393F07F4FEC
:1004400081F06051704732F07F4208BF704793F0EF
:100450007F4F04BF41F40021704730B54FF4607402
:1004600001F0004521F000411CE700BF50EA010205
:1004700008BF704730B54FF000050AE050EA0102AE
:1004800008BF704730B511F0004502D5404261EB1E
:1004900041014FF4806404F132045FEA915C3FF45F
:1004A000D8AE4FF003025FEADC0C18BF03325FEAFC
:1004B000DC0C18BF033202EBDC02C2F1200300FAAD
:1004C00003FC20FA02F001FA03FE40EA0E0021FAD2
:1004D00002F11444BDE600BF70B54FF0FF0C4CF4C0
:1004E000E06C1CEA11541DBF1CEA135594EA0C0F72
:1004F00095EA0C0F00F0DEF82C4481EA030621EAAD
:100500004C5123EA4C5350EA013518BF52EA0335E7
:1005100041F4801143F4801338D0A0FB02CE4FF099
:100520000005E1FB02E506F00042E0FB03E54FF0C9
:100530000006E1FB03569CF0000F18BF4EF0010EC1
:10054000A4F1FF04B6F5007F64F5407404D25FEABD
:100550004E0E6D4146EB060642EAC62141EA555170
:100560004FEAC52040EA5E504FEACE2EB4F1FD0CB2
:1005700088BFBCF5E06F1ED8BEF1004F08BF5FEA30
:10058000500E50F1000041EB045170BD06F00046E2
:1005900046EA010140EA020081EA0301B4EB5C048F
:1005A000C2BFD4EB0C0541EA045170BD41F4801187
:1005B0004FF0000E013C00F3AB8014F1360FDEBFAC
:1005C000002001F0004170BDC4F10004203C35DA88
:1005D0000C341BDC04F11404C4F1200500FA05F30B
:1005E00020FA04F001FA05F240EA020001F00042AC
:1005F00021F0004110EBD37021FA04F642EB060122
:100600005EEA430E08BF20EAD37070BDC4F10C044B
:10061000C4F1200500FA04F320FA05F001FA04F20F
:1006200040EA020001F0004110EBD37041F10001FB
:100630005EEA430E08BF20EAD37070BDC4F1200506
:1006400000FA05F24EEA020E20FA04F301FA05F26E
:1006500043EA020321FA04F001F0004121FA04F216
:1006600020EA020000EBD3705EEA430E08BF20EAE6
:10067000D37070BD94F0000F0FD101F00046400020
:1006800041EB010111F4801F08BF013CF7D041EAA2
:10069000060195F0000F18BF704703F000465200A6
:1006A00043EB030313F4801F08BF013DF7D043EA77
:1006B0000603704794EA0C0F0CEA135518BF95EA2D
:1006C0000C0F0CD050EA410618BF52EA4306D1D1B4
:1006D00081EA030101F000414FF0000070BD50EAD3
:1006E000410606BF1046194652EA430619D094EA5D
:1006F0000C0F02D150EA013613D195EA0C0F05D147
:1007000052EA03361CBF104619460AD181EA03019A
:1007100001F0004141F0FE4141F470014FF0000052
:1007200070BD41F0FE4141F4780170BD70B54FF0ED
:10073000FF0C4CF4E06C1CEA11541DBF1CEA13556D
:1007400094EA0C0F95EA0C0F00F0A7F8A4EB05044F
:1007500081EA030E52EA03354FEA013100F0888046
:100760004FEA03334FF0805545EA131343EA12630F
:100770004FEA022245EA111545EA10654FEA0026C4
:100780000EF000419D4208BF964244F1FD0404F57D
:10079000407402D25B084FEA3202B61A65EB0305D9
:1007A0005B084FEA32024FF480104FF4002CB6EB96
:1007B000020E75EB030E22BFB61A754640EA0C0016
:1007C0005B084FEA3202B6EB020E75EB030E22BF56
:1007D000B61A754640EA5C005B084FEA3202B6EB97
:1007E000020E75EB030E22BFB61A754640EA9C0056
:1007F0005B084FEA3202B6EB020E75EB030E22BF26
:10080000B61A754640EADC0055EA060E18D04FEAE3
:10081000051545EA16754FEA06164FEAC30343EA83
:1008200052734FEAC2025FEA1C1CC0D111F4801F50
:100830000BD141EA00014FF000004FF0004CB6E749
:1008400011F4801F04BF01430020B4F1FD0C88BFE8
:10085000BCF5E06F3FF6AFAEB5EB030C04BFB6EBF3
:10086000020C5FEA500C50F1000041EB045170BDE6
:100870000EF0004E4EEA113114EB5C04C2BFD4EB13
:100880000C0541EA045170BD41F480114FF0000E97
:10089000013C90E645EA060E8DE60CEA135594EA13
:1008A0000C0F08BF95EA0C0F3FF43BAF94EA0C0F16
:1008B0000AD150EA01347FF434AF95EA0C0F7FF48B
:1008C00025AF104619462CE795EA0C0F06D152EADF
:1008D00003353FF4FDAE1046194622E750EA4106C3
:1008E00018BF52EA43067FF4C5AE50EA41047FF4D4
:1008F0000DAF52EA43057FF4EBAE12E74FF0FF3C39
:1009000006E000BF4FF0010C02E000BF4FF0010C09
:100910004DF804CD4FEA410C7FEA6C5C4FEA430C82
:1009200018BF7FEA6C5C1BD001B050EA410C0CBFD1
:1009300052EA430C91EA030F02BF90EA020F002033
:10094000704710F1000F91EA030F58BF994208BF9A
:1009500090422CBFD8176FEAE37040F00100704757
:100960004FEA410C7FEA6C5C02D150EA013C07D1AE
:100970004FEA430C7FEA6C5CD6D152EA033CD3D0F9
:100980005DF8040B704700BF8446104662468C46F3
:100990001946634600E000BF01B5FFF7B7FF002826
:1009A00048BF10F1000F01BD4DF808EDFFF7F4FF4F
:1009B0000CBF012000205DF808FB00BF4DF808EDDA
:1009C000FFF7EAFF34BF012000205DF808FB00BFFD
:1009D0004DF808EDFFF7E0FF94BF012000205DF81F
:1009E00008FB00BF4DF808EDFFF7CEFF94BF0120D4
:1009F00000205DF808FB00BF4DF808EDFFF7C4FFCD
:100A000034BF012000205DF808FB00BF4FEA410C15
:100A10007FEA6C5C02D150EA013C0AD14FEA430CF8
:100A20007FEA6C5C02D152EA033C02D14FF0000035
:100A300070474FF0010070474FEA410212F5001273
:100A400015D211D56FF47873B3EB625212D94FEA15
:100A5000C12343F0004343EA505311F0004F23FAFF
:100A600002F018BF404270474FF00000704750EA54
:100A7000013005D111F0004008BF6FF00040704711
:100A80004FF00000704700BF4A0011D212F500126B
:100A900011D20DD56FF47873B3EB62520ED44FEAD6
:100AA000C12343F0004343EA505323FA02F0704756
:100AB0004FF00000704750EA013002D14FF0FF3094
:100AC00070474FF0000070474FEA4102B2F1E04337
:100AD00024BFB3F5001CDCF1FE5C0DD901F0004C25
:100AE0004FEAC0024CEA5070B2F1004F40EB830075
:100AF00008BF20F00100704711F0804F21D113F1A1
:100B00003872BCBF01F00040704741F480114FEAD9
:100B10005252C2F11802C2F1200C10FA0CF320FA62
:100B200002F018BF40F001004FEAC1234FEAD3237F
:100B300003FA0CFC40EA0C0023FA02F34FEA4303E9
:100B4000CCE77FEA625307D150EA01331EBF4FF072
:100B5000FE4040F44000704701F0004040F0FE408D
:100B600040F40000704700BF53B94AB9002908BFDC
:100B700000281CBF4FF0FF314FF0FF3000F0AAB942
:100B8000ADF1080C6DE904CE00F03EF8DDF804E0AC
:100B9000DDE9022304B0704738B505460C46002253
:100BA000002328462146FFF709FF28B92846214699
:100BB000BDE8384000F00AB8284604F1004100F0D2
:100BC00005F8404261EB410138BD00BFD0B50022BD
:100BD0000B4B06460F46FFF77FFCFFF755FF044619
:100BE000FFF700FC0022074BFFF776FC02460B469E
:100BF00030463946FFF7B8FAFFF746FF2146D0BD29
:100C00000000F03D0000F0412DE9F047089E0D4640
:100C100004468E46002B4CD18A42944667D9B2FADC
:100C200082F353B102FA03FCC3F1200201FA03FE7E
:100C300020FA02F242EA0E0E9C404FEA1C47BEFB2D
:100C4000F7F11FFA8CF507FB11EE01FB05F0220C02
:100C500042EA0E4290420AD91CEB020201F1FF3E29
:100C600080F01981904240F2168102396244121AD2
:100C7000B2FBF7F007FB102200FB05F5A4B244EA33
:100C80000244A5420AD91CEB040400F1FF3280F0B3
:100C90000481A54240F201816444023840EA0140E7
:100CA0000021641B1EB1DC400023C6E90043BDE8FF
:100CB000F0878B4208D9002E00F0EA800021C6E9B7
:100CC00000050846BDE8F087B3FA83F1002948D152
:100CD000AB4202D3824200F2F880841A65EB030231
:100CE00001209646002EE2D0C6E9004EDFE702B9A9
:100CF000FFDEB2FA82F3002B40F08E80881A0121C9
:100D0000170C1FFA82FEB0FBF7F507FB1500220C4B
:100D100042EA00420EFB05F0904208D91CEB0202A9
:100D200005F1FF3802D2904200F2CC804546121AFB
:100D3000B2FBF7F007FB10220EFB00FEA4B244EA60
:100D40000244A64508D91CEB040400F1FF3202D28C
:100D5000A64500F2B4801046A4EB0E0440EA05401C
:100D6000A0E7C1F120078B4022FA07FC4CEA030CF4
:100D700025FA07FA4FEA1C49BAFBF9F88D4020FA28
:100D800007F309FB18AA1FFA8CFE2B4300FA01F5A2
:100D900008FB0EF01C0C44EA0A44A04202FA01F2DD
:100DA0000BD91CEB040408F1FF3A80F08680A042C6
:100DB00040F28380A8F102086444241A98B2B4FB7C
:100DC000F9F309FB134403FB0EFE40EA0444A64575
:100DD00008D91CEB040403F1FF306AD2A64568D998
:100DE000023B644443EA0840A0FB0293A4EB0E04D8
:100DF0009C42C8469E4654D351D0002E67D0B5EBD6
:100E0000080364EB0E04CB4004FA07F71F43CC4001
:100E1000C6E9007400214AE702FA03FCC3F120008E
:100E2000C1409D4024FA00F04FEA1C472843B1FB23
:100E3000F7F507FB15111FFA8CFE020C42EA01427E
:100E400005FB0EF1914204FA03F408D91CEB0202EF
:100E500005F1FF382FD291422DD9023D6244521A3A
:100E6000B2FBF7F107FB112280B240EA024001FB1E
:100E70000EF2824208D91CEB000001F1FF3816D2B5
:100E8000824214D902396044801A41EA05413AE7A6
:100E9000314630460BE77146E9E61046FEE64D4521
:100EA000ABD2B9EB020863EB0C0E0138A5E7414663
:100EB000EAE7034696E74546D1E7D0467DE7644436
:100EC000023849E7023D624431E708460AE7314605
:100ED000EDE600BF704700BF80B483B000AF78601C
:100EE000034A7B68136000BF0C37BD4680BC704767
:100EF0005002002080B586B002AF322005F0C0F865
:100F0000AC233B7333237B730023BB73294B1868DB
:100F100007F10C024FF47A7300930323702105F05C
:100F2000BDFF642005F0ACF8224B18683A1D4FF461
:100F30007A7300930723702106F0AEF83A791E4BBE
:100F40001A701D4B1B785BB2002B2ADB7B791A468B
:100F50001A4B1A60194B1B681B02BA791343174AC4
:100F60001360164B1B681B01FA791209D2B21343A6
:100F7000124A1360FB7903F00F03114A1360104B00
:100F80001B681B023A7A13430D4A13600C4B1B6813
:100F90001B027A7A13430A4A1360BA7A094B1A7011
:100FA00003E00A2005F06CF8BEE700BF1037BD462D
:100FB00080BD00BF50020020440200204C020020EF
:100FC000480200204502002080B582B000AF184BD7
:100FD0001B681846FFF706FA4FF00002154BFFF7A3
:100FE000A5FB02460B46104619464FF00002114B76
:100FF000FFF79CFB02460B46104619464FF00002D5
:101000000D4BFFF769FA02460B46104619464FF0A2
:1010100000020A4BFFF7A8F802460B46C7E9002377
:10102000D7E90023104619460837BD4680BD00BFEA
:101030004802002000009040000069400000494044
:1010400080B582B000AF134B1B681846FFF7CAF992
:101050004FF00002104BFFF769FB02460B461046AB
:1010600019464FF000020C4BFFF760FB02460B469F
:10107000104619464FF00002084BFFF72DFA0246C2
:101080000B46C7E90023D7E9002310461946083765
:10109000BD4680BD4C020020000090400000594039
:1010A00084B090B5C1B000AF07F5887484E80F0034
:1010B00097F810313A461146184600F099F8034661
:1010C000002B02D16FF00A0385E03B461946D7F8A2
:1010D00020040AF06DFD3A4607F2191107F21923B0
:1010E000184600F00DF90346002B02D16FF00B03F8
:1010F00071E03B461946D7F820040AF09FFCD7F868
:101100002004FFF725F803461A46D7F82034134485
:10111000354A1C46134607CB20606160A260B7F8D1
:101120001A133A4607F54773184600F029F90346A3
:10113000002B02D16FF00C034DE03B461946D7F867
:1011400020040AF07BFC3A4607F5897311461846DD
:1011500000F066F90346002B02D16FF00D033AE070
:101160003B461946D7F820040AF068FC97F811416D
:10117000D7F81C04FEF7ECFF03469BB23A4619462B
:10118000204600F0D1F90346002B02D16FF00E0388
:1011900021E03B461946D7F820040AF04FFCD7F867
:1011A0002004FEF7D5FF03461A46D7F8203413442F
:1011B0000E4A1188927819809A70D7F81C341B78DF
:1011C000002B07D0D7F81C14D7F820040AF036FCFF
:1011D000012300E00223184607F58277BD46BDE8EB
:1011E000904004B0704700BFB8EA0008C4EA0008A5
:1011F00080B483B000AF03463960FB71FB79013BDB
:10120000072B5CD801A252F823F000BF2D12000872
:101210003D1200084D1200085D1200086D12000812
:101220007F12000895120008AB1200083B682B4A99
:101230001068186012791A71012349E03B68284A46
:101240001068186092889A80022341E03B68254A22
:101250001068186092889A80032339E03B68224A1C
:101260001068186012791A71042331E03B681F4935
:101270001A460B4603CB10605160052328E03B68FB
:101280001B491A460B4603CB106051601B78137242
:1012900006231DE03B6817491A460B4603CB106036
:1012A00051601B781372072312E03B68124A1068E2
:1012B00018609188927999809A71082308E03B68B8
:1012C0000E4A106818609188927999809A7100236B
:1012D00018460C37BD4680BC704700BFC8EA0008FE
:1012E000D0EA0008D8EA0008E0EA0008E8EA0008C6
:1012F000F0EA0008FCEA000808EB000810EB000820
:1013000080B5A4B000AFF860B9607A6000233B619B
:1013100007F114037C22002118460AF087FB7B6842
:1013200000221A70BB681B78002B0CD007F1100349
:10133000BA68114918460AF055FA07F11003194620
:1013400078680AF035FCFB681B78002B0ED007F19B
:101350001003FA68094918460AF044FA07F1100325
:10136000194678680AF06AFB012300E0002318465A
:101370009037BD4680BD00BF18EB000820EB000889
:1013800080B594B000AFF8600B467A607B81002393
:101390003B6107F114033C22002118460AF046FB8A
:1013A0007B6800221A70FB68002B2ED0FA6819495E
:1013B00078680AF017FA7B89002B18D07868FEF756
:1013C000C7FE03461A467B68134413491A460B4668
:1013D0001B8813807B8907F110010A22184608F048
:1013E000A4FA07F11003194678680AF027FB786819
:1013F000FEF7AEFE03461A467B681344074A11887F
:10140000927819809A70012300E000231846503723
:10141000BD4680BD28EB000834EB0008C4EA000894
:10142000F0B589B006AF786039603B6800221A7069
:101430007B6802331B78002B6BD07B6803331B78EF
:10144000002B66D07B681B78072B01D9002361E055
:101450007B6801331B78632B01D900235AE07B683A
:1014600002331B78002B04D07B6802331B780C2BD3
:1014700001D900234EE07B6803331B78002B04D096
:101480007B6803331B781F2B01D9002342E07B6864
:1014900004331B78172B01D900233BE07B6805330D
:1014A0001B783B2B01D9002334E07B6806331B7883
:1014B0003B2B01D900232DE07B681B78013B9B006F
:1014C000164A99187B6803331B781E467B680233E3
:1014D0001B78013B9B00124A13447A680132127850
:1014E00010467A680432127814467A680532127807
:1014F00015467A6806321278049203950294019098
:10150000009333460A46074938680AF06BF901230D
:1015100000E0022318460C37BD46F0BD58F1000824
:1015200028F1000838EB0008B0B5A2B000AF0346C0
:101530003A60FB710B46BB800023BB6007F10C03D4
:101540007C22002118460AF071FABA8807F10803D4
:10155000564918460AF046F907F108031946386853
:101560000AF026FBBB88002B00F09A80FB797F2BCA
:1015700000F096803868FEF7EBFD03461A463B689C
:1015800013444B4A1C46134607CB20606160A2609F
:101590001A889B78A281A37300233B72FB79013BDD
:1015A000072B64D801A252F823F000BFCD15000824
:1015B000DB150008E9150008091600081D160008CB
:1015C0002F160008571600084316000807F10803F5
:1015D000384A07CA03C31A804BE007F10803364AAA
:1015E00007CA03C31A7044E007F10803334A1C46D4
:1015F00015460FCD0FC495E8030020600434218008
:1016000002340B0C237034E007F108032C4A1C460B
:1016100015460FCD0FC42B6823702AE007F108038D
:10162000284A1C4613460FCB84E80F0021E007F13F
:101630000803254A07CA03C31A800233120C1A7022
:1016400017E007F10803214A1C4615460FCD0FC4C9
:101650002B6823800DE007F108031D4A1C46154640
:101660000FCD0FC495E80F0007C4238001E00023CD
:1016700017E007F108031846FEF76AFD03461A460D
:1016800007F108031344134A1188927819809A705D
:1016900007F10803194638680AF0D0F9022300E080
:1016A000012318468837BD46B0BD00BF68EB00086F
:1016B00080EB000890EB00089CEB0008A8EB00080A
:1016C000C0EB0008D4EB0008E4EB0008F0EB0008E6
:1016D00004EC0008C4EA000880B582B000AF0346FD
:1016E000FB7197F907302133162B51D801A252F81C
:1016F00023F000BF89170008811700087917000838
:101700009117000891170008911700089117000819
:101710009117000891170008911700089117000809
:1017200091170008911700089117000891170008F9
:101730009117000891170008911700087117000809
:1017400069170008611700085917000851170008A9
:1017500011480AF03FF81BE010480AF03BF817E088
:101760000F480AF037F813E00E480AF033F80FE09C
:101770000D480AF02FF80BE00C480AF02BF807E0B0
:101780000B480AF027F803E00A480AF023F800BFE4
:1017900000BF0837BD4680BD50EC0008A0EC000833
:1017A000F8EC000848ED00088CED0008DCED0008BE
:1017B00020EE000858EE00082DE9B00FD1B000AFC0
:1017C000C7F82C010B46A7F82A314FF000024FF062
:1017D0000003C7E94E23002387F83731002387F839
:1017E000373128E0D7E94E234FF000004FF00001D9
:1017F000190241EA12611002B7F82A2197F837312D
:1018000013441A46D7F82C3113441B78DBB200225C
:101810001C46154640EA0403C7F8203141EA050397
:10182000C7F82431D7E94823C7E94E2397F8373161
:10183000013387F8373197F83731032BD2D9B64BBC
:101840001B78312B00F2A48201A252F823F000BFD2
:1018500019190008371900085519000873190008EC
:1018600091190008AF190008AF190008CD19000838
:10187000CD190008EB190008EB190008091A000837
:10188000091A0008091A0008271A0008451A000852
:10189000451A0008631A0008811A00089F1A0008F8
:1018A000BD1A0008911D0008911D0008DB1A0008F0
:1018B000DB1A0008DB1A0008F91A0008F91A0008F8
:1018C000491B0008491B0008691B0008891B000808
:1018D000A71B0008C31B0008DF1B0008FB1B000838
:1018E000171C0008331C00084F1C00086B1C000864
:1018F000851C0008A11C0008BD1C0008D91C00089C
:10190000F51C0008111D00082D1D0008491D0008C8
:10191000651D00087B1D0008D7E94E237F4951183B
:10192000C7F8181143F1FF33C7F81C31D7E9463423
:10193000C7E94E342CE2D7E94E2379495118C7F84C
:10194000101143F1FF33C7F81431D7E94434C7E924
:101950004E341DE2D7E94E2372495118C7F80811D9
:1019600043F1FF33C7F80C31D7E94234C7E94E34AD
:101970000EE2D7E94E236C495118C7F8001143F124
:10198000FF33C7F80431D7E94034C7E94E34FFE1EB
:10199000D7E94E2365495118C7F8F81043F1FF33D2
:1019A000C7F8FC30D7E93E34C7E94E34F0E1D7E957
:1019B0004E23B2F5E141C7F8F01043F1FF33C7F809
:1019C000F430D7E93C34C7E94E34E1E1D7E94E239E
:1019D00057495118C7F8E81043F1FF33C7F8EC3006
:1019E000D7E93A34C7E94E34D2E1D7E94E23514919
:1019F0005118C7F8E01043F1FF33C7F8E430D7E9D6
:101A00003834C7E94E34C3E1D7E94E234A49511867
:101A1000C7F8D81043F1FF33C7F8DC30D7E93634C4
:101A2000C7E94E34B4E1D7E94E2344495118C7F809
:101A3000D01043F1FF33C7F8D430D7E93434C7E9C5
:101A40004E34A5E1D7E94E23B2F56151C7F8C8106D
:101A500043F1FF33C7F8CC30D7E93234C7E94E340D
:101A600096E1D7E94E2336495118C7F8C01043F123
:101A7000FF33C7F8C430D7E93034C7E94E3487E1C3
:101A8000D7E94E232F495118C7F8B81043F1FF3357
:101A9000C7F8BC30D7E92E34C7E94E3478E1D7E92E
:101AA0004E23B2F5E151C7F8B01043F1FF33C7F848
:101AB000B430D7E92C34C7E94E3469E1D7E94E2375
:101AC000B2F56161C7F8A81043F1FF33C7F8AC3035
:101AD000D7E92A34C7E94E345AE1D7E94E2312F543
:101AE0006161C7F8A01043F10003C7F8A430D7E93B
:101AF0002834C7E94E344BE1D7E94E2312F5E151C2
:101B0000C7F8981043F10003C7F89C30D7E9263492
:101B1000C7E94E343CE100BFC50200204057FFFF3B
:101B20005065FFFF6073FFFF687AFFFF7081FFFF62
:101B3000909DFFFFA0ABFFFFB0B9FFFFB8C0FFFF54
:101B4000C8CEFFFFD0D5FFFFD7E94E2342F63021A4
:101B50005118C7F8901043F10003C7F89430D7E943
:101B60002434C7E94E3413E1D7E94E2343F2381148
:101B70005118C7F8881043F10003C7F88C30D7E933
:101B80002234C7E94E3403E1D7E94E2312F56151FF
:101B9000C7F8801043F10003C7F88430D7E9203438
:101BA000C7E94E34F4E0D7E94E2343F648715118A3
:101BB000B96743F10003FB67D7E91E34C7E94E3428
:101BC000E6E0D7E94E2344F250615118396743F1FA
:101BD00000037B67D7E91C34C7E94E34D8E0D7E966
:101BE0004E2344F658515118B96643F10003FB6681
:101BF000D7E91A34C7E94E34CAE0D7E94E2345F293
:101C0000DC015118396643F100037B66D7E91834CB
:101C1000C7E94E34BCE0D7E94E2345F26041511884
:101C2000B96543F10003FB65D7E91634C7E94E34C3
:101C3000AEE0D7E94E2345F668315118396543F1D6
:101C400000037B65D7E91434C7E94E34A0E0D7E937
:101C50004E2346F270215118B96443F10003FB642E
:101C6000D7E91234C7E94E3492E0D7E94E2312F592
:101C7000E141396443F100037B64D7E91034C7E9DB
:101C80004E3485E0D7E94E2347F690615118B96389
:101C900043F10003FB63D7E90E34C7E94E3477E024
:101CA000D7E94E2348F298515118396343F10003A4
:101CB0007B63D7E90C34C7E94E3469E0D7E94E239A
:101CC00048F6A0415118B96243F10003FB62D7E91D
:101CD0000A34C7E94E345BE0D7E94E2349F2A83114
:101CE0005118396243F100037B62D7E90834C7E930
:101CF0004E344DE0D7E94E2349F6B0215118B96171
:101D000043F10003FB61D7E90634C7E94E343FE0F5
:101D1000D7E94E234AF2B8115118396143F1000353
:101D20007B61D7E90434C7E94E3431E0D7E94E236B
:101D30004AF6C0015118B96043F10003FB60D7E9CE
:101D40000234C7E94E3423E0D7E94E234BF24C313D
:101D50005118396043F100037B60D7E90034C7E9CB
:101D60004E3415E0D7E94E234BF2D06112EB010A55
:101D700043F1000BC7E94EAB0AE0D7E94E234CF222
:101D8000E04112EB010843F10009C7E94E8900BFA9
:101D9000D7E94E231046194607F5A277BD46BDE8A0
:101DA000B00F704780B487B000AFB9607B60034666
:101DB000FB731346BB73334AFB7B1370BB681A7803
:101DC000314B1A70BB685A782F4B5A70BB689A789F
:101DD0002D4B9A70BB68DA782B4BDA702B4ABB7BA1
:101DE00013702B4A7B681360274B00225A71264BD5
:101DF00004221A71244B03229A71234B0022DA71B8
:101E0000214B00221A72204B00225A721E4B0022D4
:101E1000DA601D4B00221A611B4B00221A751A4909
:101E20004FF000024FF00003C1E9062316494FF0BE
:101E300000024FF00003C1E9082313494FF00002EC
:101E40004FF00003C1E90A230F494FF001024FF0A0
:101E50000003C1E90C230C4B5B799B01DAB20A4BFE
:101E60001B79DB00DBB21344DAB2074B9B791344D6
:101E7000DBB2FB75FA7D074B1A7000BF1C37BD46FD
:101E800080BC7047C402002058020020C502002018
:101E9000C00200209002002090B58DB002AF7860A3
:101EA00000237B612823BB84584B1B789B000133A4
:101EB000DB0003F54073184601F008F80346002BD9
:101EC00000F09280222B40F09880504B1B781846EF
:101ED00001F0A1F90346FB84FB8C002B41D0FB8C65
:101EE000382B01D93823FB84484B1878484B1968A4
:101EF00007F11404FA8C07F112030093234600F053
:101F0000F7FD434B1B68BA8C11461846FFF754FC8B
:101F1000C7E9060107F108031A46D7E9060100F0F0
:101F200081F83A897B681A80BA7A7B689A70FA7A63
:101F30007B68DA703A7B7B681A717A7B7B685A71AE
:101F4000BA7B7B689A71FA7B7B68DA71314B00222D
:101F50001A802E4B1B78184600F026FCD7E9062382
:101F60004FE02C4B1B884FF6FF72934233D0294B26
:101F70001B88002B0FD1254B18787B230093264B11
:101F80003022264900F07EFC224B1B8801339AB296
:101F9000204B1A8030E01F4B1A88214BA3FB021301
:101FA000D11A49080B44D90A0B461B035B1AD31AF2
:101FB0009BB2002B20D1154B18787B230093164B36
:101FC0003022164900F05EFC124B1B8801339AB296
:101FD000104B1A8010E00F4B00221A800B4B1B781D
:101FE000184600F0E1FB07E0084B187800237B223D
:101FF000022100F0C5FA00E000BF4FF000024FF0F0
:102000000003104619462C37BD4690BDC40200207F
:10201000C0020020C60200205802002090020020CA
:10202000010110002DE9B04FB2B000AFC7E91E01A9
:102030007A67002387F8C7304FF000024FF00003A3
:10204000C7E92E234FF000024FF00003C7E92C230D
:102050004FF000024FF00003C7E924234FF00002C5
:102060004FF00003C7E92A230023A7F8A630002376
:10207000A7F8A4300023A7F88E304FF000024FF0ED
:102080000003C7E92623D7E91E23C7E92E23D7E992
:102090001E01A04A4FF00003FEF766FD02460B4604
:1020A000C7E924234FF000024FF00003C7E92C23B7
:1020B000D7E924239849541843F1FF354FF007021C
:1020C0004FF0000320462946FEF74EFDD3B27A6F4B
:1020D000D371924BC7F88830914BC7F8843070E0C9
:1020E000B7F8A43003F26C718E4B83FB0123DA1135
:1020F000CB17D31A4FF4C87202FB03F3CB1A002B91
:1021000017D0B7F8A43003F26C71864B83FB012320
:102110005A11CB17D31A642202FB03F3CB1A002BFC
:1021200025D0B7F8A43003F26C7303F00303002B3F
:102130001DD1D7F8843000229A469346D7E92E2342
:10214000B2EB0A01B96563EB0B03FB65D7E9163403
:10215000C7E92E34D7E92C2312F5B771396543F15D
:1021600000037B65D7E91434C7E92C341FE0D7F8A6
:1021700088300022BB66FA66D7E92E23D7E91A0118
:102180000446141BBC6463EB0103FB64D7E91234FF
:10219000C7E92E34D7E92C2340F26D115118396468
:1021A00043F100037B64D7E91034C7E92C34B7F856
:1021B000A4300133A7F8A430B7F8A6300133A7F84C
:1021C000A630D7F88830002298469146D7E92E23CA
:1021D000424573EB090383D2B7F8A63003F26C7360
:1021E000A7F8A6307A6FB7F8A63013804FF0000238
:1021F0004FF00003C7E92623D7E92401D7E92C23B0
:10220000841A3C6661EB03037B66D7E91834C7E99F
:102210002634012387F8C730D3E097F8C730012B65
:1022200017D097F8C730032B13D097F8C730052B7A
:102230000FD097F8C730072B0BD097F8C730082B73
:1022400007D097F8C7300A2B03D097F8C7300C2B6C
:102250001CD1D7E92623B2F11F01B96343F1FF3343
:10226000FB63D7E90E34C7E92634D7E92623002BD0
:10227000C0F2AF80D7E92A2312F11F01396343F17D
:1022800000037B63D7E90C34C7E92A3497F8C730D9
:10229000022B65D1B7F8A610224BA3FB0123DA0964
:1022A0004FF4C87302FB03F3CB1A9BB2002B13D07D
:1022B000B7F8A6101B4BA3FB01235A09642302FBAA
:1022C00003F3CB1A9BB2002B2ED0B7F8A63003F045
:1022D00003039BB2002B27D1D7E92623B2F11D01BE
:1022E000B96243F1FF33FB62D7E90A34C7E9263408
:1022F000D7E92623002B6EDBD7E92A2312F11D0133
:10230000396243F100037B62D7E90834C7E92A3414
:1023100026E000BF805101005271FFFF8033E101D0
:102320000085E2011F85EB51D7E92623B2F11C019C
:10233000B96143F1FF33FB61D7E90634C7E92634BD
:10234000D7E92623002B48DBD7E92A2312F11C0109
:10235000396143F100037B61D7E90434C7E92A34CA
:1023600097F8C730042B0BD097F8C730062B07D04F
:1023700097F8C730092B03D097F8C7300B2B1BD128
:10238000D7E92623B2F11E01B96043F1FF33FB60A8
:10239000D7E90234C7E92634D7E92623002B1EDB10
:1023A000D7E92A2312F11E01396043F100037B6053
:1023B000D7E90034C7E92A3497F8C730013387F8E2
:1023C000C730D7E926231C2A73F10003BFF625AFD7
:1023D00006E000BF04E000BF02E000BF00E000BF75
:1023E0007B6F97F8C7209A70B7F89020B7F8B03095
:1023F000D31A9AB2B7F8A830D31AA7F88E30B7F824
:102400008E300133A7F88E30B7F88E30DAB27B6F9A
:10241000DA70D7E91E01204A4FF00003FEF7A4FB53
:10242000C7E91E23D7E91E014FF461624FF0000394
:10243000FEF79AFB02460B46D2B27B6F1A71D7E9C0
:102440001E014FF461624FF00003FEF78DFB104652
:1024500019464FF03C024FF00003FEF785FB0246A1
:102460000B46D2B27B6F5A71D7E91E014FF46162FD
:102470004FF00003FEF778FB104619464FF03C0280
:102480004FF00003FEF770FBD2B27B6F9A7100BF72
:10249000C837BD46BDE8B08F8051010080B500AFA0
:1024A00000221021024804F09DFB00BF80BD00BF48
:1024B0000008014080B500AF01221021024804F05D
:1024C00091FB00BF80BD00BF0008014080B500AF98
:1024D00000220821074804F085FB012003F0D0FD0D
:1024E00001220821034804F07DFB642003F0C8FDAD
:1024F00000BF80BD0008014080B582B000AF7860A9
:102500000B467B807A884FF0FF337968034806F0EA
:1025100042FA00BF0837BD4680BD00BF70030020EF
:1025200080B582B000AF78600B467B807A884FF030
:10253000FF337968034806F0EBF800BF0837BD4663
:1025400080BD00BF7003002080B582B000AFFB1DCE
:1025500001211846FFF7D0FFFB7918460837BD4622
:1025600080BD80B582B000AF0346FB71FB1D012129
:102570001846FFF7D5FF00BF0837BD4680BD0000F5
:1025800090B585B000AF0446084611461A4623466A
:10259000FB710346BB710B46BB801346FB70FB7996
:1025A000082B02D94FF0FF33F0E0BB79012B05D0A7
:1025B000002B11DD023B022B0ED811E007F10C03BA
:1025C000042219464FF4706000F01AFDFB68002BDE
:1025D00005D16FF00203D9E06FF00403D6E000BF2D
:1025E000FB7803F00403002B02D06FF00503CDE06D
:1025F000FB78002B28D0BB79012B02D0022B08D00E
:1026000022E0FB7803F02103002B1AD16FF00503C1
:10261000BCE0FB7803F02003002B06D097F90330D1
:10262000002B02DB6FF00503B0E0FB7803F0100332
:10263000002B08D097F90330002B04DB6FF0050363
:10264000A4E000BF00E000BFFB79184600F0ACF842
:10265000FB799B000133DB00184697F9033023F028
:102660000F035AB297F9063013435BB2DBB2194637
:1026700000F078FCBB88002B10D1464B1B885A1CFD
:1026800091B2444A1180BB80424B1B884FF6F072D6
:10269000934203D13F4B4FF440421A80FB799B0099
:1026A0000133DB0003F580631A46BB881B0A9BB22B
:1026B000DBB21946104600F055FCFB799B00013354
:1026C000DB0003F5A0631A46BB88DBB2194610464F
:1026D00000F048FCFB799B000133DB0003F58073BD
:1026E0000121184600F03EFC00BFFB799B0001333E
:1026F000DB0003F58073184600F0E8FB0346002B6F
:10270000F3D1FB79012202FA03F31BB2DB431AB2C5
:10271000214B1B881BB213401BB29AB21E4B1A806E
:10272000FB7803F00102FB7902FA03F31AB21A4BA9
:102730001B881BB213431BB29AB2174B1A80FB794A
:10274000012202FA03F31BB2DB431AB2134B1B88BC
:102750001BB213401BB29AB2104B1A80FB79104A7D
:10276000002122F81310FB790E4A0021D15400BF3A
:10277000FB799B000133DB0003F54073184600F042
:10278000A5FB0346002BF3D097F907301846143702
:10279000BD4690BD00000020C8020020CA020020F3
:1027A000CC020020DC02002080B582B000AF0346DE
:1027B000FB71FB79082B02D94FF0FF3355E0FB7911
:1027C0009B000133DB0003F580731021184600F0F5
:1027D000C9FB00BFFB799B000133DB0003F580736D
:1027E000184600F073FB0346002BF3D1FB799B00E6
:1027F0000133DB0003F500731F21184600F0B2FB24
:10280000FB79012202FA03F31BB2DB431AB2194B24
:102810001B881BB213401BB29AB2164B1A80FB796D
:10282000012202FA03F31BB2DB431AB2124B1B88DC
:102830001BB213401BB29AB20F4B1A80FB790F4A9E
:10284000002122F81310FB790D4A0021D15400BF5A
:10285000FB799B000133DB0003F54073184600F061
:1028600035FB0346002BF3D1012318460837BD463C
:1028700080BD00BFC8020020CA020020CC02002098
:10288000DC02002080B586B000AFB9607B600346F3
:10289000FB731346BB810023FB750023BB82FB7BCC
:1028A000082B02D94FF0FF331BE1FB7B9B00013368
:1028B000DB00184600F00AFB034603F00F03023B5F
:1028C000022B02D96FF004030BE100BFBB89002B80
:1028D00002D16FF00D0304E17B681B783B613B691B
:1028E0001B027A680132127813443B613B691B0278
:1028F0007A680232127813443B613B691B027A68A2
:102900000332127813443B613B69002B0ED1FB7BF1
:102910009B000133DB00184600F0D8FA034603F0B1
:102920000403042B02D06FF00B03DAE03B8C002B86
:102930000ED1FB7B9B000133DB00184600F0C6FA8A
:10294000034603F00403042B02D06FF00A03C8E02F
:10295000FB7B9B000133DB0003F54073184600F05E
:10296000B5FA0346FB75FB7D422B08D0FB7D222B7D
:1029700005D0FB7D322B02D06FF00603B1E0FB7B6C
:102980009B000133DB0003F540630422796818469D
:1029900000F096FBFB7B9B000133DB0003F58053CB
:1029A0001A463B8C1B0A9BB2DBB21946104600F05C
:1029B000D9FAFB7B9B000133DB0003F588531A46F1
:1029C0003B8CDBB21946104600F0CCFAFB7B9B0037
:1029D0000133DB0003F5F853184600F077FA03469D
:1029E0009BB29B02BB82BA89BB8A9A4201D9BB8A3D
:1029F000BB81FB7B184600F0C3FB0346BB82FB7B1D
:102A00009B000133DB0003F54073184600F05EFACB
:102A10000346002B02D16FF0030362E0334B1B88A7
:102A20001A46FB7B42FA03F303F00103002B05D0A7
:102A3000BA89BB8A9A4201D9002352E0BA89BB8A7B
:102A40009A4200D9D5E700BFBA89FB7BB96818461E
:102A500000F02CFCFB7B9B000133DB0003F5807353
:102A60002021184600F07EFA00BFFB7B9B0001335B
:102A7000DB0003F58073184600F028FA0346002BAC
:102A8000F3D1FB7B9B000133DB0003F50073184699
:102A900000F01CFA034603F01F03FB75FB7D03F0F7
:102AA0001003002B0CD0FB7B9B000133DB0003F5F4
:102AB00000731021184600F055FA00BFBB8910E0E2
:102AC000FB7D03F00803002BDBD0FB7B9B00013375
:102AD000DB0003F500730821184600F043FA6FF09D
:102AE0000C0318461837BD4680BD00BFC802002041
:102AF00080B588B000AFB9607B600346FB731346B6
:102B0000BB810023FB83FB7B082B02D94FF0FF33F3
:102B1000D4E1FB7B9B000133DB00184600F0D6F9C3
:102B200003467B777B7F03F00F03023B022B02D926
:102B30006FF00403C2E100BFBB89002B02D16FF02C
:102B40000D03BBE1FB7B884A32F81330002B28D100
:102B5000FB7B184600F05FFB0346FB83FB7B9B007F
:102B60000133DB0003F54073184600F0AFF903466C
:102B7000002B02D16FF00303A0E17C4B1B881A46A7
:102B8000FB7B42FA03F303F00103002B04D0FB8B21
:102B9000002B01D1002391E1FB8B002B00D1D7E763
:102BA00000BF7B7F03F00703042B79D0042B00F3D5
:102BB0004281022B03D0032B00F0DC803BE1FB7B46
:102BC000694A32F81330002B52D107F11401FB7B14
:102BD0000822184600F0C6FBFB7B9B000133DB009C
:102BE00003F580734021184600F0BCF900BFFB7B61
:102BF0009B000133DB0003F58073184600F066F993
:102C00000346002BF3D13A7D7B681A707B68013351
:102C10007A7D1A707B680233BA7D1A707B68033341
:102C2000FA7D1A703B7E9AB2BB6A1A80BB6A1B8817
:102C30001B029AB27B7E9BB213449AB2BB6A1A8083
:102C4000BA7EFB7B91B2484A22F81310FB7B464ABE
:102C500032F813301B0299B2FB7E9AB2FB7B0A4416
:102C600091B2414A22F81310FB7B414A8021D15492
:102C7000FB7B3D4A32F81330BA899A4202D2BB89B3
:102C8000FB8304E0FB7B384A32F81330FB83FB8B79
:102C9000BB81FA8BFB7BB968184600F063FBD6E07A
:102CA000FB7B314A32F81330002B46D107F1140177
:102CB000FB7B0222184600F055FBFB7B9B00013397
:102CC000DB0003F580734021184600F04BF900BF8C
:102CD000FB7B9B000133DB0003F58073184600F09B
:102CE000F5F80346002BF3D13A7DFB7B91B21E4AE7
:102CF00022F81310FB7B1C4A32F813301B029AB2E5
:102D00007B7D9BB213449AB2FB7B023A91B2164A86
:102D100022F81310FB7B144A32F8133040F2EA52C7
:102D2000934206D9FB7B1846FFF73EFD6FF47A739A
:102D3000C4E0FB7B0E4A8021D154FB7B0A4A32F867
:102D40001330BA899A4202D2BB89FB8304E0FB7B31
:102D5000054A32F81330FB83FA8BFB7BB9681846BF
:102D600000F000FB73E000BFCC020020C80200208E
:102D7000DC020020FB7B534A32F81330002B44D195
:102D800007F11401FB7B0622184600F0EBFAFB7BEF
:102D90009B000133DB0003F580734021184600F0EF
:102DA000E1F800BFFB7B9B000133DB0003F5807380
:102DB000184600F08BF80346002BF3D13A7D7B6870
:102DC0001A707B6801337A7D1A707B680233BA7D92
:102DD0001A707B680333FA7D1A703A7EFB7B91B2DE
:102DE000384A22F81310FB7B364A32F813301B02A4
:102DF00099B27B7E9AB2FB7B0A4491B2314A22F8A7
:102E00001310FB7B304A8021D154FB7B2D4A32F8D2
:102E10001330BA899A4202D2BB89FB8304E0FB7B60
:102E2000284A32F81330FB83FA8BFB7BB9681846CB
:102E300000F098FA0BE0FA8BFB7B1146184600F085
:102E4000EDFAFB7B1F49FA8B21F8132000BFFB7BB7
:102E50009B000133DB0003F580734021184600F02E
:102E600081F800BFFB7B9B000133DB0003F580731F
:102E7000184600F02BF80346002BF3D1FB7B114AD8
:102E800032F81310FB7BFA8B8A1A91B20D4A22F8A2
:102E90001310FB7B0B4A32F81330002B09D0FB7B5D
:102EA000094AD25CFB7B42F00102D1B2064AD154FE
:102EB00003E0FB7B044A0021D154FB8B18462037EA
:102EC000BD4680BDCC020020DC02002080B584B06D
:102ED00000AF7860224BDB689847214B5B699847CD
:102EE0001F4B5B6A002B03D01D4B9B6A002B14D138
:102EF0001B4B1B6A7A68120CD2B210469847184BCB
:102F00001B6A7A68120AD2B210469847144B1B6AA1
:102F10007A68D2B21046984711E07B681B0CDBB28E
:102F20003B737B681B0ADBB27B737B68DBB2BB73D2
:102F30000B4B9B6A07F10C02032110469847084B84
:102F4000DB6998470346FB73054B9B699847044B25
:102F50001B699847FB7B18461037BD4680BD00BFF4
:102F60000400002080B584B000AF78600B46FB7091
:102F7000224BDB689847214B5B6998477B6843F09D
:102F800004037B601D4B9B6A002B19D11B4B1B6AF2
:102F90007A68120CD2B210469847184B1B6A7A68AE
:102FA000120AD2B210469847144B1B6A7A68D2B202
:102FB00010469847114B1B6AFA781046984713E061
:102FC0007B681B0CDBB23B737B681B0ADBB27B7339
:102FD0007B68DBB2BB73FB78FB73084B9B6A07F122
:102FE0000C02042110469847044B9B699847034BF9
:102FF0001B69984700BF1037BD4680BD0400002004
:1030000090B587B000AFF860B9601346FB802B4BDA
:10301000DB689847294B5B699847284B5B6A002B14
:1030200003D0264B9B6A002B26D1244B1B6AFA68DF
:10303000120CD2B210469847204B1B6AFA68120A4B
:10304000D2B2104698471D4B1B6AFA68D2B210469E
:1030500098470023FB820AE0184BDB69FA8AB968BB
:103060008C18984703462370FB8A0133FB82FA8A47
:10307000FB889A42F0D317E0FB681B0CDBB23B7471
:10308000FB681B0ADBB27B74FB68DBB2BB740B4BC7
:103090009B6A07F11002032110469847074B5B6AB1
:1030A000FA881146B8689847044B9B699847034BC8
:1030B0001B69984700BF1C37BD4690BD0400002027
:1030C00080B586B000AFF860B9601346FB802B4B2B
:1030D000DB689847294B5B699847FB6843F004031A
:1030E000FB60264B9B6A002B26D1244B1B6AFA6897
:1030F000120CD2B210469847204B1B6AFA68120A8B
:10310000D2B2104698471D4B1B6AFA68D2B21046DD
:1031100098470023FB820AE0184B1B6AFA8AB968B9
:103120000A44127810469847FB8A0133FB82FA8AD8
:10313000FB889A42F0D317E0FB681B0CDBB23B74B0
:10314000FB681B0ADBB27B74FB68DBB2BB740B4B06
:103150009B6A07F11002032110469847074B9B6AB0
:10316000FA881146B8689847044B9B699847034B07
:103170001B69984700BF1837BD4680BD040000207A
:1031800090B585B000AF0346FB710023FB8100239F
:10319000BB81FB799B000133DB0003F5005318462C
:1031A000FFF794FE0346BB81BB891B029CB2FB79EF
:1031B0009B000133DB0003F504531846FFF786FE3E
:1031C00003469BB22344BB81BB89002B1AD0FB79F9
:1031D0009B000133DB0003F500531846FFF776FE32
:1031E0000346FB81FB891B029CB2FB799B000133E8
:1031F000DB0003F504531846FFF768FE03469BB255
:103200002344FB81FA89BB899A42C2D1FB891846C3
:103210001437BD4690BD90B585B000AF0346FB7135
:103220000023FB810023BB81FB799B000133DB0082
:1032300003F518531846FFF749FE0346BB81BB89C7
:103240001B029CB2FB799B000133DB0003F51C538E
:103250001846FFF73BFE03469BB22344BB81BB8964
:10326000002B1AD0FB799B000133DB0003F51853C8
:103270001846FFF72BFE0346FB81FB891B029CB21D
:10328000FB799B000133DB0003F51C531846FFF765
:103290001DFE03469BB22344FB81FA89BB899A42F7
:1032A000C2D1FB8918461437BD4690BD90B585B094
:1032B00000AF03463960FB711346BB800023FB81DE
:1032C0000023BB60BB88002B48D0FB799B000133F7
:1032D000DB0003F510531846FFF7F8FD03469BB2D9
:1032E0001B029CB2FB799B000133DB0003F51453F6
:1032F0001846FFF7EBFD03469BB22344FB81FB8995
:103300001B02FA7992000232D2001344BB60BB88E0
:103310001A463968B868FFF7D3FEFA89BB881344A8
:10332000FB81FB799B000133DB0003F510531A4648
:10333000FB891B0A9BB2DBB219461046FFF712FE4F
:10334000FB799B000133DB0003F514531A46FB891C
:10335000DBB219461046FFF705FE00E000BF143748
:10336000BD4690BD90B585B000AF03463960FB7196
:103370001346BB800023FB810023BB60BB88002B6E
:1033800048D0FB799B000133DB0003F5205318463E
:10339000FFF79CFD03469BB21B029CB2FB799B008E
:1033A0000133DB0003F524531846FFF78FFD034676
:1033B0009BB22344FB81FB891B02FA799200033202
:1033C000D2001344BB60BB881A463968B868FFF75F
:1033D00017FEFA89BB881344FB81FB799B000133FC
:1033E000DB0003F520531A46FB891B0A9BB2DBB2B4
:1033F00019461046FFF7B6FDFB799B000133DB0051
:1034000003F524531A46FB89DBB219461046FFF731
:10341000A9FD00E000BF1437BD4690BD90B585B052
:1034200000AF03460A46FB711346BB800023FB81B5
:10343000FB799B000133DB0003F520531846FFF7AF
:1034400045FD03469BB21B029CB2FB799B000133F6
:10345000DB0003F524531846FFF738FD03469BB203
:103460002344FB81FA89BB881344FB81FB799B00D1
:103470000133DB0003F520531A46FB891B0A9BB27C
:10348000DBB219461046FFF76DFDFB799B00013357
:10349000DB0003F524531A46FB89DBB219461046BC
:1034A000FFF760FD00BF1437BD4690BD80B400AF8C
:1034B00000BFBD4680BC704780B400AF00BFBD46B2
:1034C00080BC704780B400AF00BFBD4680BC704771
:1034D00080B400AF00BFBD4680BC704780B483B0ED
:1034E00000AF78607B681B78DBB218460C37BD46AE
:1034F00080BC704780B483B000AF78600B46FB702F
:103500007B68FA781A7000BF0C37BD4680BC7047E4
:1035100080B400AF00231846BD4680BC704780B41D
:1035200083B000AF0346FB7100BF0C37BD4680BCC3
:10353000704780B483B000AF78600B467B8000BFDB
:103540000C37BD4680BC704780B483B000AF786054
:103550000B467B8000BF0C37BD4680BC7047000027
:1035600080B483B000AF786039607B68002B02D0F4
:103570003B68002B06D1094B094A5A61074B094A9F
:103580009A6106E0054A7B685361044A3B6893618F
:1035900000BF00BF0C37BD4680BC70470400002050
:1035A000C5340008D134000880B483B000AF78601F
:1035B000396000BF0F4B1B8803F40073002BF9D058
:1035C0007B68002B02D03B68002B06D1094B0A4ACE
:1035D000DA61084B094A1A6206E0064A7B68D36141
:1035E000044A3B68136200BF00BF0C37BD4680BC75
:1035F000704700BF04000020113500081F35000887
:1036000080B483B000AF7860396000BF0F4B1B8877
:1036100003F40073002BF9D07B68002B02D03B68C9
:10362000002B06D1094B0A4A5A62084B094A9A6292
:1036300006E0064A7B685362044A3B68936200BF17
:1036400000BF0C37BD4680BC704700BF040000209F
:10365000333500084935000890B587B000AF034600
:103660003960FB710023FB750023FB6000233B6185
:10367000FB790F2B00F2C78001A252F823F000BFA4
:10368000C1360008C7360008F3360008E7360008E0
:10369000013700080D3700081B37000841370008C4
:1036A00067370008AB370008B1370008B9370008A2
:1036B0000D380008C1370008CF370008EB37000885
:1036C00000F0EAF8A3E03B68002B04D03B68FB6005
:1036D000FB6808333B61FB683A691146184600F005
:1036E00027F9034694E03B681B88184600F0ACF9C4
:1036F0008DE000F0DDF903461A463B681A8086E04B
:103700003B681B88184600F0F8F980E000F010FADA
:1037100003461A463B681A8079E03B681B881B0AFF
:103720009BB2DBB219464FF49850FFF71BFC3B6885
:103730001B88DBB219464FF4A050FFF713FC66E07C
:103740004FF49850FFF7C2FB03469BB21B029CB29A
:103750004FF4A050FFF7BAFB03469BB223449AB242
:103760003B681A8053E02C4B9A783B681A703B6890
:103770000133294AD2781A703B680233264A1279FB
:103780001A703B680333244A52791A703B68043339
:10379000214A92791A703B6805331F4AD2791A7010
:1037A0003B68063300221A7031E000F013FA2EE075
:1037B000386800F036FA2AE0386800F075FA26E03A
:1037C0003B681B78184600F0D9FA034620E000F069
:1037D000E8F90346FB75FB7DFF2B02D14FF0FF3369
:1037E00016E03B68FA7D1A7011E000F0C4F9034658
:1037F000FB75FB7DFF2B02D14FF0FF3308E03B68E8
:10380000FA7D1A7003E04FF0FF3301E000BF0023A0
:1038100018461C37BD4690BD0400002080B582B01C
:1038200000AF03463960FB71FB79052B2CD801A250
:1038300052F823F04D380008553800085D3800086C
:103840006B3800087938000881380008386800F0C3
:10385000DFFA1CE0386800F01BFB18E03B681B78BF
:10386000184600F055FB034612E000F073FB0346D8
:103870001A463B681A700AE0386800F073FB06E0ED
:10388000386800F090FB02E04FF0FF3300E00023C7
:1038900018460837BD4680BD80B586B000AF3B1DD9
:1038A000062219464FF41060FFF7AAFB07F1140334
:1038B000042219464FF48070FFF7A2FB07F11003B2
:1038C000042219464FF4A060FFF79AFB07F10C039E
:1038D000042219464FF47060FFF792FB802100200C
:1038E000FFF740FB0020FFF7F1FA3B1D06221946C7
:1038F0004FF41060FFF7E4FB07F1140304221946AC
:103900004FF48070FFF7DCFB07F110030422194627
:103910004FF4A060FFF7D4FB07F10C030422194613
:103920004FF47060FFF7CCFB00BF1837BD4680BD79
:1039300080B584B000AF786039600023BB73FFF7B7
:10394000ABFF7B68002B3BD00023BB730023FB73D2
:1039500015E097F90F307A6813441A78BB7B13444B
:10396000DBB2BB7397F90E30102B02DD4FF0FF3343
:1039700066E097F90F30DBB20133DBB2FB7397F9E6
:103980000F30072BE5DD0023FB7315E097F90F30AF
:103990009B000133DB0003F5F853184697F90F300D
:1039A0007A6813441B781946FFF7DCFA97F90F3051
:1039B000DBB20133DBB2FB7397F90F30072BE5DD88
:1039C0003B68002B3BD00023BB730023FB7315E047
:1039D00097F90F303A6813441A78BB7B1344DBB273
:1039E000BB7397F90E30102B02DD4FF0FF3327E049
:1039F00097F90F30DBB20133DBB2FB7397F90F306D
:103A0000072BE5DD0023FB7315E097F90F309B00D2
:103A10000133DB0003F5F053184697F90F303A688D
:103A200013441B781946FFF79DFA97F90F30DBB264
:103A30000133DBB2FB7397F90F30072BE5DD002371
:103A400018461037BD4680BD80B584B000AF034630
:103A5000FB80FB88FB73FB881B0A9BB2BB73FB7B61
:103A600023F00F03DBB219464FF4A850FFF77AFAA0
:103A70000023FB7314E0BA7BFB7B42FA03F303F0F1
:103A80000103002B09D0FB7B9B000133DB0003F516
:103A900000731F211846FFF765FAFB7B0133FB73A8
:103AA000FB7B072BE7D900BF00BF1037BD4680BDA9
:103AB00080B582B000AF0023FB710023BB710023EF
:103AC000BB804FF4A850FFF701FA034623F00F0321
:103AD000FB714FF4B850FFF7F9F90346BB71BB799E
:103AE000BB80BB881B029AB2FB799BB21344BB809C
:103AF000BB8818460837BD4680BD80B584B000AF8E
:103B00000346FB80FB88FB73FB881B0A9BB2BB73DD
:103B1000FB7B19464FF4B050FFF724FABB7B1946E4
:103B20004FF4C050FFF71EFA00BF1037BD4680BDEE
:103B300080B582B000AF0023FB710023BB7100236E
:103B4000BB804FF4B050FFF7C1F90346FB714FF44F
:103B5000C050FFF7BBF90346BB71BB79BB80BB8884
:103B60001B029AB2FB799BB21344BB80BB881846F8
:103B70000837BD4680BD80B582B000AF0023FB7121
:103B80004FF43850FFF7A2F9034603F00103002B6E
:103B900001D00123FB7197F9073018460837BD465D
:103BA00080BD80B582B000AF0023FB714FF4385068
:103BB000FFF78CF9034603F03803302B02D10123C1
:103BC000FB7101E00023FB7197F9073018460837B5
:103BD000BD4680BD80B582B000AF4FF43850FFF7CE
:103BE00075F90346FB71FB7903F07F03FB71FB79E9
:103BF00019464FF43850FFF7B5F94FF43850FFF736
:103C000065F90346FB71FB7963F07F03FB71FB7978
:103C100019464FF43850FFF7A5F900BF0837BD46E5
:103C200080BD80B584B000AF78600023FB737B68F3
:103C30001B78012B04D1FB7B43F04003FB7303E0B3
:103C4000FB7B23F04003FB737B685B78012B04D183
:103C5000FB7B43F03803FB7319E07B68DB78012BB7
:103C60000DD17B689B78012B04D1FB7B43F01803BB
:103C7000FB730CE0FB7B43F00803FB7307E07B68FE
:103C80009B78012B03D1FB7B43F01003FB73FB7B81
:103C900019464FF43850FFF765F9FFF79BFF00BF57
:103CA0001037BD4680BD000080B584B000AF78609D
:103CB0000023FB734FF43850FFF708F90346FB73FA
:103CC000FB7B9B11DBB203F00103DAB27B681A7055
:103CD000FB7B03F03803202B01D0382B03D17B680A
:103CE00001225A7003E07B6800225A7000BFFB7B00
:103CF00003F03803103B102B8CBF01220022D2B2FC
:103D0000002A0FD11B4A22FA03F303F00103002B10
:103D100014BF01230023DBB2002B03D07B680122F8
:103D20009A7003E07B6800229A7000BFFB7B03F06F
:103D30003803083B182B8CBF01220022D2B2002A84
:103D40000FD10D4A22FA03F303F00103002B14BF35
:103D500001230023DBB2002B03D07B680122DA7041
:103D600003E07B680022DA7000BF00BF1037BD4659
:103D700080BD00BF010101000100010180B584B0D8
:103D800000AF0346FB710023FB734FF43850FFF77D
:103D90009DF80346FB73FB7B03F04003002B02D12D
:103DA0004FF0FF3330E0FB7B23F03803FB73FB79EC
:103DB000012B04D1FB7B43F03003FB7303E0FB7B5F
:103DC00043F03803FB73FB7B19464FF43850FFF781
:103DD000C9F8FFF7FFFE4FF43850FFF777F80346B6
:103DE000FB73FB79012B06D1FB7B03F03003002B27
:103DF00008D0002308E0FB7B03F03803002B01D040
:103E0000002301E04FF0FF3318461037BD4680BD58
:103E100080B582B000AF78607B68062219464FF407
:103E20001060FFF74DF97B680E33042219464FF4FA
:103E30008070FFF745F97B680A33042219464FF476
:103E4000A060FFF73DF97B680633042219464FF462
:103E50007060FFF735F97B689A7C0B4B1A707B68B2
:103E6000DA7C094B5A707B681A7D074B9A707B6825
:103E70005A7D054BDA707B689A7D044B1A7000BF3F
:103E80000837BD4680BD00BFE4020020E8020020E4
:103E900080B582B000AF78607B68062219464FF487
:103EA0001060FFF7ADF87B680E33042219464FF41B
:103EB0008070FFF7A5F87B680A33042219464FF497
:103EC000A060FFF79DF87B680633042219464FF483
:103ED0007060FFF795F80C4B1A787B689A740A4B60
:103EE0005A787B68DA74084B9A787B681A75064BA7
:103EF000DA787B685A75054B1A787B689A7500BF2B
:103F00000837BD4680BD00BFE4020020E802002063
:103F100080B584B000AF0346FB710023FB73FB79CF
:103F200023F03A03002B02D04FF0FF330EE00020C5
:103F3000FEF7CCFF0346FB73FA7BFB791343FB735D
:103F4000FB7B19460020FFF70DF8002318461037B9
:103F5000BD4680BD80B500AF0020FEF7B7FF034629
:103F6000184680BD80B582B000AF78607B681B7852
:103F700019464FF4D850FEF7F5FF7B685B881B0AA3
:103F80009BB2DBB219464FF4C850FEF7EBFF7B68DB
:103F90005B88DBB219464FF4D050FEF7E3FF00BF59
:103FA0000837BD4680BD90B583B000AF78604FF450
:103FB000D850FEF78BFF03461A467B681A704FF401
:103FC000C850FEF783FF03469BB21B029CB24FF41E
:103FD000D050FEF77BFF03469BB223449AB27B6826
:103FE0005A8000BF0C37BD4690BD80B584B000AF8D
:103FF000786039600023FB600023BB607B68002B86
:1040000001D1002315E07868FCF7A2F803460133DC
:10401000FB603B681B68F8689847B860BB68002B7A
:1040200001D1002305E0FA687968B86807F0D6FD89
:10403000BB6818461037BD4680BD80B584B000AF60
:1040400078607B681B6828209847F860FB68002B25
:1040500004D028220021F86807F0E8FCFB68184625
:104060001037BD4680BD000080B584B000AF7860D9
:104070000023FB6037E07B681B68FB607B68DB68C4
:1040800003F48073002B08D17B689B68002B04D05D
:104090007B689B681846FFF7E7FF7B68DB6803F4E3
:1040A0008073002B09D17B681B69002B05D0124B54
:1040B0005B687A681269104698477B68DB6803F48E
:1040C0000073002B09D17B681B6A002B05D00A4BBB
:1040D0005B687A68126A10469847074B5B68786895
:1040E0009847FB687B607B68002BC4D100BF00BF92
:1040F0001037BD4680BD00BF3000002080B400AF47
:104100002E231846BD4680BC704780B584B000AFF2
:10411000786039600023FB600023BB607B68002B64
:1041200003D07B681B68002B01D1002383E07B68F0
:104130005B68002B07D07B689A687B685B689A4253
:1041400001D3002377E03B68002B01DA002372E003
:104150007B689A683B68134401333B607B685B680B
:104160003A689A4205D87B681A687B689B68134452
:1041700061E07B681B69002B01D000235BE03B689A
:10418000B3F1804F08D33B68002B03DB6FF0004393
:10419000BB6004E000234EE03B685B00BB607B68D3
:1041A0001B6A002B18D07B681B6A7A681268B96892
:1041B00010469847F860FB68002B32D17B68DB69BA
:1041C0007A681268104698477B6800225A607B68BC
:1041D00000221A6000232EE07B689B69B86898472C
:1041E000F860FB68002B0DD17B68DB697A68126888
:1041F000104698477B6800225A607B6800221A604C
:10420000002318E07B6819687B689B6801331A46B5
:10421000F86807F0E3FC7B68DB697A68126810468F
:1042200098477B68BA685A607B68FA681A607B684E
:104230009B68FA68134418461037BD4680BD90B598
:1042400085B000AF78600023FB607B68002B13D043
:104250007B681B68002B0FD07B681A687B689B68A3
:104260001344FB607B689C68F868FBF771FF0346AA
:10427000E2187B689A6000E000BF1437BD4690BD2D
:104280002DE9B0438AB000AFC7E90601C7E90423AE
:10429000BB69BB60FB6923F00043FB603B693B608B
:1042A0007B6923F000437B60D7E90023D7E9020153
:1042B000FCF7A2FB0346002B04D0BC69FB6923F08A
:1042C000004503E03C697B6923F00045C7E90845E8
:1042D000D7E90423D7E90601FBF746FF02460B4660
:1042E000904623F000494FF000020C4BD7E908013B
:1042F000FCF7F2F802460B4601210C4640464946BF
:10430000FCF766FB0346002B01D100231C46E3B2F9
:1043100018462837BD46BDE8B08300BF0000B03C5A
:10432000F0B593B000AF786039600023FB637B6821
:10433000D3E90623C7E90C2300237B6400233B64F5
:1043400000237B6107F1180300221A605A609A600B
:10435000DA601A619A82FFF7D1FE034687F82F30A0
:104360004FF000024FF00003C7E902233B68002B27
:1043700001D1002398E0D7E90C23D7E90C01FCF721
:1043800045FB0346002B21D13C6B7B6B23F00045A2
:1043900001231E464FF0FF32454B20462946FCF7CD
:1043A00035FB0346002B0BD14FF0FF32404B20462C
:1043B0002946FCF70DFB0346002B01D100231E46C6
:1043C000F3B283F00103DBB2002B07D007F1140333
:1043D0003849184607F006FA786423E007F114001C
:1043E000D7E90C23344907F0FDF9786407F1080296
:1043F00007F114033149184607F014FA0346012B5C
:1044000008D1D7E90201D7E90C23FFF739FF0346AA
:10441000002B07D107F11400D7E90C23284907F036
:10442000E1F978647B6C002B02DB7B6C192B01DDDE
:10443000002339E07B6C013319463868FFF765FECD
:10444000F863FB6B002B01D100232DE000233B64BC
:104450001AE007F114023B6C13441B7897F82F20E5
:104460009A4205D1FA6B3B6C13442E221A7008E075
:10447000FA6B3B6C134407F114013A6C0A4412784E
:104480001A703B6C01333B647B6C3A6C9A42E0D30C
:10449000FA6B3B6C134400221A703B689A687B6C81
:1044A0001A443B689A60012318464C37BD46F0BD5C
:1044B000FFFFEF7F9CEE0008A4EE0008ACEE0008C2
:1044C000B0EE000880B588B000AF78603960002396
:1044D000FB6100233B610023BB610023FB600023E1
:1044E0007B613B68002B01D1002310E17B68002B2E
:1044F00011D103213868FFF708FE38613B69002BB2
:1045000001D1002303E13B69834A11889278198025
:104510009A700123FBE07B68FB6124E0FB691B7858
:10452000222B0FDC082B13DB083B7C4A22FA03F317
:1045300003F00103002B14BF01230023DBB2002B87
:1045400002D105E05C2B03D17B6901337B6107E07D
:10455000FB691B781F2B02D87B6905337B6100BF89
:10456000FB690133FB61FB691B78002BD6D1FA692B
:104570007B68D31A1A467B691344FB60FB680333DC
:1045800019463868FFF7C1FD38613B69002B01D13E
:104590000023BCE07B69002B17D13B6922221A70F3
:1045A0003B690133FA687968184607F017FBFB6826
:1045B00001333A69134422221A70FB6802333A69C4
:1045C000134400221A700123A1E03B6922221A70D1
:1045D0003B690133BB617B68FB6186E0FB691B784B
:1045E0001F2B0CD9FB691B78222B08D0FB691B7889
:1045F0005C2B04D0FB691A78BB691A706FE0BB6949
:104600005A1CBA615C221A70FB691B78222B3DDCB4
:10461000082B59DB083B1A2B56D801A252F823F07D
:10462000A1460008C1460008B1460008C946000876
:10463000A9460008B9460008C9460008C94600084E
:10464000C9460008C9460008C9460008C94600080E
:10465000C9460008C9460008C9460008C9460008FE
:10466000C9460008C9460008C9460008C9460008EE
:10467000C9460008C9460008C9460008C9460008DE
:10468000C9460008C9460008994600085C2B1BD1A2
:10469000BB695C221A7022E0BB6922221A701EE0FC
:1046A000BB6962221A701AE0BB6966221A7016E0B2
:1046B000BB696E221A7012E0BB6972221A700EE09A
:1046C000BB6974221A700AE0FB691B781A46144908
:1046D000B86907F087F8BB690433BB6100BFFB69A9
:1046E0000133FB61BB690133BB61FB691B78002BA4
:1046F0007FF474AFFB6801333A69134422221A70C5
:10470000FB6802333A69134400221A7001231846E9
:104710002037BD4680BD00BFB8EE0008370000045A
:10472000BCEE000880B582B000AF786039607B686D
:104730001B6939681846FFF7C5FE03461846083757
:10474000BD4680BD80B58EB000AFF860B9607A60BC
:1047500000237B6307F1100324220021184607F091
:1047600065F97B681B68384A12681046984703460B
:104770003B61354B1B687B61BB687B627A6807F1E4
:10478000280307CA83E807003B69002B40D007F1E4
:1047900010031946F86800F069F80346002B39D079
:1047A00007F110031846FFF74AFD7B689B68002B52
:1047B0000DD07B689B683869BA6901321146984709
:1047C00078637B6B002B27D000233B611EE07B6866
:1047D0001B68BA6901321046984778637B6B002BDF
:1047E0001CD03969BB695A1C7B69934228BF1346A8
:1047F0001A46786B07F0F2F9BB697A6B1344002212
:104800001A707B685B683A69104698477B6B16E0C4
:1048100000BF04E000BF02E000BF00E000BF3B6952
:10482000002B04D07B685B683A69104698477B6B25
:10483000002B03D07B685B68786B98470023184691
:104840003837BD4680BD00BF74F1000880B582B026
:1048500000AF7860044A01217868FFF773FF0346D0
:1048600018460837BD4680BD3000002080B584B0B2
:1048700000AF786039600023FB607B68002B02D0BA
:104880003B68002B01D10023C9E07B68DB68DBB209
:10489000802B00F08E80802B00F3C080202B49DC21
:1048A000002B40F3BB80013B1F2B00F2B78001A21D
:1048B00052F823F05F490008834900081D4A0008A8
:1048C0003B4900081D4A00081D4A00081D4A00080F
:1048D000A74900081D4A00081D4A00081D4A000893
:1048E0001D4A00081D4A00081D4A00081D4A00080C
:1048F000F94900081D4A00081D4A00081D4A000821
:104900001D4A00081D4A00081D4A00081D4A0008EB
:104910001D4A00081D4A00081D4A00081D4A0008DB
:104920001D4A00081D4A00081D4A00081D4A0008CB
:10493000054A0008402B6BD070E005213868FFF76E
:10494000E4FBF860FB68002B01D1002367E0FB6803
:10495000354A1068186012791A7101235FE0062148
:104960003868FFF7D2FBF860FB68002B01D1002309
:1049700055E0FB682D4A1068186092889A800123E0
:104980004DE005213868FFF7C0FBF860FB68002B9D
:1049900001D1002343E0FB68254A106818601279B2
:1049A0001A7101233BE039687868FFF7B9FC0346C8
:1049B00035E00023BB607B681B69002B01D100231D
:1049C0002DE07B681B691846FBF7C2FB03460133E9
:1049D000BB60B9683868FFF798FBF860FB68002B8C
:1049E00001D100231BE07B681B69BA681946F8688F
:1049F00007F0F4F8012312E039687868FFF792FEB7
:104A000003460CE03968786800F014F8034606E0C5
:104A10003968786800F094F8034600E000231846EF
:104A20001037BD4680BD00BF9CEE0008C8EE0008F0
:104A3000D0EE000880B586B000AF78603960002302
:104A40007B610023FB607B689B683B613B68002BBC
:104A500001D1002370E001213868FFF756FB78612F
:104A60007B69002B01D1002366E07B695B221A7011
:104A70003B689B685A1C3B689A603B68DB685A1C21
:104A80003B68DA603DE039683869FFF7EFFE0346BE
:104A9000002B01D100234FE03868FFF7D0FB3B69C2
:104AA0001B68002B2AD03B685B69002B01D00223D6
:104AB00000E00123FB60FB68013319463868FFF70B
:104AC00024FB78617B69002B01D1002334E07B69F2
:104AD0005A1C7A612C221A703B685B69002B04D047
:104AE0007B695A1C7A6120221A707B6900221A7035
:104AF0003B689A68FB681A443B689A603B691B688C
:104B00003B613B69002BBED102213868FFF7FDFAFB
:104B100078617B69002B01D100230DE07B695A1C71
:104B20007A615D221A707B6900221A703B68DB682B
:104B30005A1E3B68DA60012318461837BD4680BD0F
:104B400080B588B000AF786039600023FB61002336
:104B5000FB607B689B68BB613B68002B01D1002335
:104B600008E13B685B69002B01D0022300E00123D0
:104B7000FB60FB68013319463868FFF7C6FAF86135
:104B8000FB69002B01D10023F4E0FB695A1CFA6198
:104B90007B221A703B68DB685A1C3B68DA603B6812
:104BA0005B69002B04D0FB695A1CFA610A221A7057
:104BB0003B689A68FB681A443B689A60A0E03B68CF
:104BC0005B69002B22D03B68DB6819463868FFF729
:104BD0009CFAF861FB69002B01D10023CAE0002395
:104BE0007B6107E0FB695A1CFA6109221A707B6934
:104BF00001337B613B68DB687A699A42F2D33B6898
:104C00009A683B68DB681A443B689A60BB691B6A18
:104C100039681846FFF756FC0346002B01D10023E4
:104C2000A8E03868FFF70BFB3B685B69002B01D0FD
:104C3000022300E00123FB60F9683868FFF765FA9A
:104C4000F861FB69002B01D1002393E0FB695A1C3A
:104C5000FA613A221A703B685B69002B04D0FB6949
:104C60005A1CFA6109221A703B689A68FB681A4458
:104C70003B689A603968B869FFF7F8FD0346002B76
:104C800001D1002376E03868FFF7D9FA3B685B6909
:104C9000002B01D0012200E00022BB691B68002B21
:104CA00001D0012300E000231344FB60FB680133C3
:104CB00019463868FFF729FAF861FB69002B01D122
:104CC000002357E0BB691B68002B04D0FB695A1C0A
:104CD000FA612C221A703B685B69002B04D0FB69D7
:104CE0005A1CFA610A221A70FB6900221A703B688A
:104CF0009A68FB681A443B689A60BB691B68BB6191
:104D0000BB69002B7FF45BAF3B685B69002B03D072
:104D10003B68DB68013300E0022319463868FFF77F
:104D2000F4F9F861FB69002B01D1002322E03B6814
:104D30005B69002B10D000233B6107E0FB695A1C24
:104D4000FA6109221A703B6901333B613B68DB68F9
:104D5000013B3A699A42F1D3FB695A1CFA617D2200
:104D60001A70FB6900221A703B68DB685A1E3B68A8
:104D7000DA60012318462037BD4680BD80B483B079
:104D800000AF786039607B683A681A603B687A687F
:104D90005A6000BF0C37BD4680BC704780B584B0F8
:104DA00000AF786039600023FB603B68002B06D0C1
:104DB0007B68002B03D07A683B689A4201D10023BC
:104DC0001EE07B689B68FB60FB68002B09D17B6859
:104DD0003A689A603B683A685A603B6800221A60F9
:104DE0000DE0FB685B68002B09D0FB685B683968E5
:104DF0001846FFF7C3FF7B689B683A685A60012337
:104E000018461037BD4680BD80B483B000AF7860CF
:104E10007B6818460C37BD4680BC704780B586B0AD
:104E200000AFF860B9607A603B6000237B610023CB
:104E30003B61FB68002B09D0BB68002B06D07B6868
:104E4000002B03D0FA687B689A4201D1002336E038
:104E50003B6A002B09D0B868FFF7D6FF78617B6802
:104E6000DB6843F400733B610EE03968B868FFF714
:104E7000BCF878617B69002B01D100231FE07B68BF
:104E8000DB6823F400733B617B68DB6803F4007329
:104E9000002B09D17B681B6A002B05D03B685B683F
:104EA0007A68126A104698477B687A691A627B684A
:104EB0003A69DA607968F868FFF770FF03461846C8
:104EC0001837BD4680BD000080B588B002AFF860DD
:104ED000B960C7E90023D7E9000100F03DF8786127
:104EE00000230093094B7A69B968F868FFF796FFC9
:104EF0000346002B01D07B6903E07869FFF7B4F823
:104F0000002318461837BD4680BD00BF3000002082
:104F100080B588B002AFF860B9607A60786800F058
:104F200063F8786100230093094B7A69B968F868DF
:104F3000FFF774FF0346002B01D07B6903E078691B
:104F4000FFF792F8002318461837BD4680BD00BF12
:104F5000300000200000000080B584B000AFC7E939
:104F600000011F48FFF769F8F860FB68002B2CD0A0
:104F7000FB680822DA60F968D7E90023C1E9062353
:104F800015A3D3E90023D7E90001FBF72BFD034666
:104F9000002B04D0FB686FF000425A6115E04FF01F
:104FA0000002104BD7E90001FBF712FD0346002B6E
:104FB00004D0FB684FF000425A6106E0D7E90001D7
:104FC000FBF73AFD0246FB685A61FB68184610374A
:104FD000BD4680BDAFF300800000C0FFFFFFDF4192
:104FE000300000200000E0C180B584B000AF7860E0
:104FF0000F48FFF722F8F860FB68002B12D0FB681F
:105000001022DA600A497868FEF7EFFF0246FB6873
:105010001A61FB681B69002B04D1F868FFF724F8BC
:10502000002300E0FB6818461037BD4680BD00BF76
:105030003000002080B582B000AF0748FEF7FDFFCA
:1050400078607B68002B02D07B684022DA607B6846
:1050500018460837BD4680BD3000002080B483B0BC
:1050600000AF786039607B689B6823F00F023B6873
:105070001B0C1A437B689A607B68DB681B0C1B0463
:105080003A6892B21A437B68DA6000BF0C37BD46BB
:1050900080BC704780B483B000AF78607B685B6889
:1050A00023F010027B685A6000BF0C37BD4680BCFD
:1050B000704780B483B000AF78607B685B6843F072
:1050C00010027B685A6000BF0C37BD4680BC704739
:1050D00080B483B000AF786039603B681A0C7B689D
:1050E0009A613B689AB27B68DA6100BF0C37BD46B3
:1050F00080BC7047B0B483B000AF78607B689B69B8
:105100009DB27B68DB699CB22B461B04224613438D
:1051100018460C37BD46B0BC7047000080B485B05F
:1051200000AF7860084BDA6907497B681343CB61AD
:10513000054BDA697B681340FB60FB6800BF1437DE
:10514000BD4680BC704700BF0010024080B400AF75
:10515000044B1B6A034A43F40043136200BFBD467D
:1051600080BC70470010024080B400AF044B1B6845
:10517000034A43F48073136000BFBD4680BC704790
:10518000007000402DE9F04FADF5497DC2AF00F051
:1051900015FF00F08DF900F0E9FA00F0E5F900F0F4
:1051A00021FA00F083FA00F04BFA00F0B5FA002281
:1051B0004FF400519B4801F015FD9B4B3C1D0FCB5C
:1051C00084E80F00994806F09FFA99499948FEF73C
:1051D000C7F999499948FEF7E7F999499948FEF7BF
:1051E0000FFAFDF773F9984806F08EFA3B1D194641
:1051F0000120FEF731FA0346B3F1FF3F03D1934894
:1052000006F0E8FAFEE7924806F07EFA07F1170387
:1052100019460F20FEF720FA0346B3F1FF3F02D1F3
:105220008C4806F0D7FAFB7D002BEFD08A4806F0B9
:105230006BFA00F0DDFB894806F066FA00F070FBBF
:105240008748FBF749FE874801F016F8864B874AE6
:1052500003F1180415460FCD0FC42B6823701122DB
:105260008349844806F00BFCFBF744FEFBF7ACFED9
:105270004FF00002804BFBF72FF902460B46104619
:105280001946FBF7D9FB03461846FBF7BBF84FF06E
:105290000002794BFBF74AFA02460B467249C1E914
:1052A0000023FBF7CDFE4FF00002734BFBF714F920
:1052B00002460B4610461946FBF7BEFB034618464E
:1052C000FBF7A0F84FF000026B4BFBF72FFA0246FA
:1052D0000B466549C1E90223624801F07BF80346A9
:1052E0009AB2614B1A825F4801F074F803469BB290
:1052F000C8339AB25C4B5A8200F0BCFA5F48FFF7A1
:10530000F9FE03460022984691465D4B18EB030ACE
:1053100049F1000B504659465A4AFCF783FE594B57
:10532000DB791C46574B1B881D46564B9B781E4607
:10533000544BDB781A46534B1B791946514B5B791A
:105340001846504B9B79039302900191009233468B
:105350002A4621464C4806F0D7F94C4B03221A70D6
:105360004B4B4C4A106818609188927999809A71D9
:10537000464B00225A72434BDB790133DAB2434B7E
:105380009A70404B1B88444AA2FB031252096421C5
:1053900001FB02F29B1A9BB2DAB23C4BDA70394B3A
:1053A0009A783A4B1A71374BDA78384B5A71354B39
:1053B0001A79364B9A71334B5A79344BDA71314B37
:1053C0009A79324B1A72354A354B14460FCB84E822
:1053D0000F002E4B4FF4FA52A3F80A222B4B042253
:1053E0005A70304B1B68294C2F4AC092BF936846B5
:1053F00004F110034FF43F72194606F0EFFB94E8F6
:105400000F00FBF74DFE03461846FCF765F92748E9
:1054100006F0E0F9244806F077F94FF47A7000F0CE
:105420002FFE21E70010014000F00008D8EE000830
:10543000B52400089D2400086325000849250008BC
:1054400021250008F9240008F0EE000814EF0008F8
:1054500038EF00084CEF000868EF00087CEF000808
:105460001C030020EC020020180400208CEF000830
:10547000A0EF00084104002000005940002800402F
:1054800000651ABC10040020A8EF00086006002088
:1054900069070020D4EF00081F85EB516C0800203D
:1054A000DCEF0008580400205C040020ECEF00084A
:1054B00080B594B000AF07F12803282200211846D8
:1054C00006F0B4FA07F1140300221A605A609A60D9
:1054D000DA601A613B1D00221A605A609A60DA6035
:1054E0000623BB6201237B630123BB631023FB63A1
:1054F00002237B640023BB644FF4C013FB6407F1F9
:105500002803184602F0BAFB0346002B01D000F036
:10551000F7FA0F237B610223BB610023FB610023A9
:105520003B6200237B6207F114030121184602F05D
:1055300027FE0346002B01D000F0E2FA03237B6034
:105540004FF48073BB604FF48043FB603B1D1846F3
:1055500002F0A4FF0346002B01D000F0D1FA00BFF7
:105560005037BD4680BD000080B584B000AF3B1D04
:1055700000221A605A609A60184B194A1A60174B39
:1055800000229A60154B01221A73144B00221A75DF
:10559000124B4FF46022DA61104B00225A600F4B1D
:1055A00001221A610D4800F08FFD0346002B01D047
:1055B00000F0A6FA09237B600123BB600023FB6097
:1055C0003B1D1946054800F011FF0346002B01D092
:1055D00000F096FA00BF1037BD4680BDEC020020F7
:1055E0000024014080B500AF124B134A1A60114BE2
:1055F000124A5A600F4B00229A600E4B0022DA606A
:105600000C4B4FF480421A610A4B00225A61094B3D
:1056100000229A61074B0022DA61064B00221A62CF
:10562000044801F0F7FA0346002B01D000F068FAB5
:1056300000BF80BD1C03002000580040801A0600F7
:1056400080B584B000AF07F1080300221A605A60E9
:105650003B1D00210A461A800A469A70FFF784FD16
:105660004FF00060FFF75AFDFFF770FD4FF4004365
:10567000BB6007F1080319460B4803F0FFFF4FF426
:1056800000410948FFF7EAFC00233B7100237B71CE
:105690000023BB713B1D1A460121034804F02AF880
:1056A00000BF1037BD4680BD0028004080B500AF68
:1056B000174B184A1A60164B4FF482725A60144BFB
:1056C00000229A60124B0022DA60114B00221A610C
:1056D0000F4B00225A610E4B4FF400729A610C4B33
:1056E0000822DA610A4B00221A62094B00225A6230
:1056F000074B00229A62064B0A22DA62044802F043
:1057000083FF0346002B01D000F0FAF900BF80BDF3
:10571000700300200030014080B500AF114B124AE9
:105720001A60104B4FF4E1325A600E4B00229A601F
:105730000C4B0022DA600B4B00221A61094B0C2241
:105740005A61084B00229A61064B0022DA61054833
:1057500003F0E2FC0346002B01D000F0D1F900BFBA
:1057600080BD00BFC80300200038014080B588B06C
:1057700000AF07F1100300221A605A609A60DA60E5
:10578000384B9B69374A43F010039361354B9B6953
:1057900003F01003FB60FB68324B9B69314A43F016
:1057A000200393612F4B9B6903F02003BB60BB6810
:1057B0002C4B9B692B4A43F004039361294B9B6953
:1057C00003F004037B607B68264B9B69254A43F00A
:1057D00008039361234B9B6903F008033B603B681C
:1057E00000224FF40051204801F0FCF900221C2156
:1057F0001E4801F0F7F900224FF470411C4801F0F7
:10580000F1F94FF400533B6101237B610023BB613D
:105810000123FB6107F110031946134801F05EF8FC
:105820001C233B6101237B610023BB610323FB61DC
:1058300007F1100319460D4801F050F84FF470437A
:105840003B6101237B610023BB610323FB6107F103
:1058500010031946064801F041F800BF2037BD4645
:1058600080BD00BF00100240001001400008014050
:10587000000C014080B582B000AFFFF7DBFB786021
:105880001D4BD3E900231D497868FFF71DFB1A4B18
:10589000D3E902231A497868FFF716FB164B1B8AD7
:1058A0001846FAF79FFD02460B4616497868FFF73F
:1058B0000BFB114B5B8A1846FAF794FD02460B4628
:1058C00011497868FFF700FB104A11497868FFF723
:1058D0001FFB104A10497868FFF71AFB7868FEF73B
:1058E000B5FF03460D4A13607868FEF7BDFB00BFA5
:1058F0000837BD4680BD00BF1804002010F0000826
:1059000018F0000820F0000824F0000830040020FF
:1059100028F00008410400202CF000085804002062
:1059200080B592B000AF234803F05AFF2148FFF73B
:10593000C0FB00233B6107F114032C220021184611
:1059400006F074F81C4BFB601C4805F043FF07F1A0
:10595000100307F10C0115220020FCF723FA184868
:1059600005F038FF4FF000024FF00003C7E91023A5
:10597000642000F085FB3B1D1846FCF78DFAC7E953
:105980001001D7E910231343F2D03A6C0D4B1344A6
:1059900019460848FFF79CFB0B4805F01BFF05481C
:1059A00003F04DFF0348FFF775FB00BF4837BD46C6
:1059B00080BD00BF002800401FD6AAFE30F00008BE
:1059C00044F00008009BE54354F0000880B582B025
:1059D00000AF7860391D4FF6FF730122034803F0D2
:1059E000EBFB7B6818460837BD4680BDC803002026
:1059F000B0B586B004AF39490020FDF70FFF384934
:105A00000120FDF70BFF3B4619460820FDF724FE59
:105A10003B461946334805F077FE314B1B78184654
:105A20002F4B5B781C462E4B9B781D462C4BDB780E
:105A30001A462B4B1B791946294B5B79029301912E
:105A400000922B4622460146274805F05DFE244B76
:105A50009B791946224BDB791A46214B1B7A184653
:105A60001F4B5B7A00930346204805F04DFE1C4B0C
:105A70009B7B19461A4BDB7B1A46194B1B7C18463D
:105A8000174B5B7C00930346194805F03DFE144B11
:105A90009B7A1946124BDB7A1A46114B1B7B184630
:105AA0000F4B5B7B00930346124805F02DFE0C4B19
:105AB0009B7C19460A4BDB7C1A46094B1B7D18461A
:105AC000074B5B7D009303460B4805F01DFE0B481A
:105AD00005F080FE00BF0837BD46B0BD3C00002089
